:020000040800F2
:1000000090280020C10100080D660008BF510008BB
:1000100009660008CB140008A19D0008000000003C
:100020000000000000000000000000005D800008EB
:10003000971E000800000000796C00087186000817
:10004000DB010008DB010008DB010008DB01000820
:10005000DB010008DB010008DB010008DB01000810
:10006000DB010008DB010008DB010008DB01000800
:10007000DB0100082D1D00083D1D0008DB01000804
:100080004D1D00085D1D0008DB010008DB010008B4
:10009000DB010008DB010008DB010008DB010008D0
:1000A000DB010008DB010008DB010008DB010008C0
:1000B000DB010008DB010008DB010008DB010008B0
:1000C000DB010008DB010008DB010008DB010008A0
:1000D000DB010008DB010008819D0008DB0100084E
:1000E000DB010008DB010008DB010008DB01000880
:1000F000DB010008DB010008DB010008DB01000870
:10010000DB010008DB010008DB010008DB0100085F
:1001100053960008DB010008C5930008DB010008C6
:10012000DB0100086D1D0008DB010008DB01000891
:10013000DB010008DB010008DB010008DB0100082F
:10014000DB010008DB010008DB010008DB0100081F
:10015000DB0100087D1D0008DB010008919D0008FF
:10016000DB010008DB010008DB010008DB010008FF
:10017000DB010008DB010008DB01000800000000D3
:10018000DB010008DB01000863960008DB010008C2
:10019000DB010008DB010008DB010008DB010008CF
:1001A0000000000000000000DB010008DFF80CD0B8
:1001B00000F0F8FB00480047B3E300089028002057
:1001C0000648804706480047FEE7FEE7FEE7FEE7F1
:1001D000FEE7FEE7FEE7FEE7FEE7FEE73B870008F7
:1001E000AD0100082DE9F05F0546002092469B46D0
:1001F00088460646814640241BE02846414647463D
:10020000224600F092FA53465A46C01A914110D342
:1002100011461846224600F079FA2D1A67EB0108BC
:100220004F4622460120002100F070FA17EB00092A
:100230004E41201EA4F10104DFDC484631462A4627
:100240004346BDE8F09F2DE9F0410024061B2546FA
:1002500071F1000605DA01240027D0EB070067EBF7
:100260000101161E73F1000605DA0027D2EB070222
:10027000012567EB0303FFF7B5FF86460E461746D9
:100280009C46AC4204D00025D0EB050E65EB010680
:1002900024B10020D2EB000760EB030C704631461E
:1002A0003A466346BDE8F08140EA01039B0703D06C
:1002B00009E008C9121F08C0042AFAD203E011F8A5
:1002C000013B00F8013B521EF9D27047D2B201E067
:1002D00000F8012B491EFBD270470022F6E710B54B
:1002E00013460A4604461946FFF7F0FF204610BDA4
:1002F0002DE9FE4F804681EA0300C00F0C460090B6
:1003000021F0004123F00045B8EB0200A94105D2DD
:100310004046214690461C460B46024623F00040CC
:10032000104347D0270DC7F30A00C3F30A510290C8
:10033000401A019040286BDAC3F3130040F4801B8D
:100340000098924620B10023D2EB030A63EB0B0B1B
:1003500001985946C0F14002504600F0D7F90646D0
:100360000D4650465946019A00F0EFF910EB08008F
:100370006141002487EA115284EAE7731A4340D0AE
:10038000009A62B3019A012A4FEA075215DC001B5A
:1003900061EB02014FF0004202EA0752CDE9004250
:1003A000001C41F5801132462B4600F026FA03B0BE
:1003B000BDE8F08F40462146F9E7001B61EB0201E2
:1003C000001C41F5801300185B412018A2F50017AE
:1003D00047EB030140EAD570B6196D4111E06D0895
:1003E0004FEA360645EAC0754FEA0752001B61EB3B
:1003F0000201001C41F5801149084FEA3000001944
:10040000514132462B4603B0BDE8F04F00F0E6B94B
:100410000098012240000023D0EB020263EBE0735E
:10042000009821464FEAE074B8EB000061EB04014C
:10043000E9E783F000435BE781F0004158E72DE9ED
:10044000FE4F81EA030404F0004421F000410094CF
:100450004FF0000B23F0004350EA01045ED052EA53
:1004600003045BD0C3F30A54C1F30A552C44A4F22D
:10047000F3340194A0FB0254C1F3130141F4801141
:10048000C3F3130343F4801301FB024400FB034E48
:10049000840A970A44EA815447EA8357A4FB076811
:1004A00002958D0A05FB07854FEA932C04FB0C543B
:1004B0002705029D4FEA065847EA1637B5EB0805AF
:1004C0006EEB070C870E920E47EA811742EA831201
:1004D000A7FB0201B6EB0B0164EB00042B0D43EA12
:1004E0000C335E1844EB1C50DA465146E7FB020120
:1004F000C5F313044FEA0B3343EA14534FEA0432B3
:10050000019C43EA0603A4F10C040294009CCDE98B
:1005100000B400F072F903B0BDE8F08F002001468E
:10052000F9E72DE9F04D81EA030404F0004B21F0D6
:10053000004514464FF0000A23F0004150EA05023E
:1005400020D054EA01021DD0C5F30A570246C5F374
:100550001303C1F31300C1F30A5640F4801543F4AA
:100560008013A7EB0608101BD64608F2FD3873EB84
:10057000050002D308F1010801E092185B41B8F1CF
:10058000000F03DA00200146BDE8F08D00204FF493
:100590008011064684460EE0171B73EB050705D352
:1005A000121B63EB050306434CEA010C49084FEAB2
:1005B000300092185B4150EA0107EDD152EA030086
:1005C00012D082EA040083EA0501084305D0101B1B
:1005D000AB4106D20122002306E000224FF0004387
:1005E00002E06FF0010253101AEB06004CEB0851C9
:1005F00010EB0A0041EB0B01BDE8F04D00F0EEB846
:100600000EB5C10F80EAE0700844CA07002140F22D
:1006100033438DE80E000A460B4600F0EEF803B0B7
:1006200000BD00F0004230F000400AD0C10D01F5DD
:100630006071C0F3160042EA0151C208400711433D
:10064000704700200146704730B5041E71F1000468
:1006500004DB4FF00044404264EB0101141E73F1CF
:10066000000405DB1C464FF00043524263EB0403D9
:100670008B4208BF824230BD30B5041E71F10004C8
:1006800004DB4FF00044404264EB0101141E73F19F
:10069000000405DB1C464FF00043524263EB0403A9
:1006A000994208BF904230BD01F0004330B421F0C0
:1006B000004150EA010206D00A0DA2F56072C1F3B2
:1006C0001301002A02DC30BC00207047440F44EACA
:1006D000C104C100E01830BC00EBC25000F047B8C4
:1006E00030B50B46014600202022012409E021FA02
:1006F00002F59D4205D303FA02F5491B04FA02F5FF
:100700002844151EA2F10102F1DC30BD202A04DBD1
:10071000203A00FA02F1002070479140C2F1200314
:1007200020FA03F3194390407047202A04DB203A53
:1007300021FA02F00021704721FA02F3D040C2F101
:1007400020029140084319467047202A06DBCB1748
:10075000203A41FA02F043EAE07306E041FA02F37C
:10076000D040C2F120029140084319467047002949
:10077000A8BF7047401C490008BF20F00100704727
:1007800010B4B0FA80FC00FA0CF050EA010404BF87
:1007900010BC704749B1CCF1200421FA04F411FADD
:1007A0000CF118BF012121430843A3EB0C01CB1D21
:1007B0004FEA00614FEA102042BF002010BC704792
:1007C00000EBC35010440029A4BF10BC7047401C6C
:1007D000490008BF20F0010010BC704710B5141E7E
:1007E00073F1000408DA401C41F1000192185B41EA
:1007F0001A4301D120F0010010BD2DE9F04D9246C1
:100800009B4611B1B1FA81F202E0B0FA80F22032D7
:100810009046FFF77BFF04460F4640EA0A0041EA94
:100820000B0153465A46084313D0114653EA0100C0
:1008300019D0C8F140025046FFF777FF05460E4633
:10084000504659464246FFF761FF084305D0012054
:1008500004E020463946BDE8F08D0020054346EA15
:10086000E0762C4337430A986305E40AA0EB0800BE
:100870000022FD0A44EA47540A3002D5002001460E
:10088000E9E7010510196941DDE9084500196941E9
:10089000BDE8F04DA2E72DE9F04D00231A461B1AE2
:1008A0008A4103DB00200146BDE8F08DC1F30A5206
:1008B000C1F3130141F480154FF0000BD10702D1B1
:1008C00000186D41521E0027044640F2FF113846C1
:1008D00001EB620A3E468046024600204FF480113A
:1008E000FFF723FFC2197141BB1846EB0100B4EBBF
:1008F000030C75EB000C04D3E41A65EB00051746F6
:100900000E46241908F101006D4180463428E3DDCC
:10091000F91946EB0600091BA84103D24FF0FF323C
:10092000134601E0002213461BEB070046EB0A5179
:10093000BDE8F04DFFF752BFC1F30A52C1F31301F6
:1009400040F2FF3341F480119A4202DA002001465E
:10095000704740F233439A42A2F2334202DC5242E1
:10096000FFF7E3BEFFF7D2BE002801DBC0F1004075
:10097000002901DBC1F10041814202D24FF0004069
:1009800004E04FF0005001D14FF0C0404FEA206228
:10099000EFF3008162F31F6181F30088704700204C
:1009A00070470000064C074D06E0E06840F0010388
:1009B00094E8070098471034AC42F6D3FFF7FAFBEF
:1009C000801D0108A01D01080EB540F233410291BF
:1009D0000021CDE900110A460B46FFF70EFF03B0D8
:1009E00000BD70B5C1F30A5201F000450024C1F307
:1009F000130140F2FF3341F480119A4201DA0020E2
:100A000070BD40F233439A42A2F2334203DC5242B9
:100A1000FFF78BFE00E090402C43F1D0404270BDC8
:100A200070B58C1810F8015B15F0070301D110F8B0
:100A3000013B2A1106D110F8012B03E010F8016BDD
:100A400001F8016B5B1EF9D12B0705D40023521E60
:100A50000DD401F8013BFAE710F8013BCB1A921CC8
:100A600003E013F8015B01F8015B521EF9D5A142C6
:100A7000D8D3002070BD10B540F20520C2F20000AE
:100A8000007830B1012841D0022873D0032872D1F8
:100A900001E10EF044F800F080FA06F082FD00203B
:100AA00040F2C411C2F20001086001F0C3FC40F240
:100AB0001000C2F200000068D0ED020A49F69A1058
:100AC000C3F6196000EE100AF4EEC00AF1EE10FA57
:100AD00015DD012040F20521C2F20001087040F24C
:100AE0008070C2F2000090ED0F0AD0ED1F0A30EEC8
:100AF000600A40F2F410C2F2000080ED000A00200B
:100B000040F20421C2F200010870CCE040F2100073
:100B1000C2F200000068D0ED020A49F69A10C3F64E
:100B2000196000EE100AF4EEC00AF1EE10FA23DDAF
:100B300040F21000C2F200000068D0ED020A49F64F
:100B40009A10C3F6196000EE100A70EEC00A49F65A
:100B50009A10C3F6597000EE100A80EE801AB0EEBB
:100B6000000A21EE000A40F2FC10C2F2000080ED03
:100B7000000A3BE05EE095E040F21000C2F20000A7
:100B80000068D0ED020A49F69A10CBF6196000EE23
:100B9000100AF4EEC00AF1EE10FA21D240F2100071
:100BA000C2F200000068D0ED020A49F69A10C3F6BE
:100BB000196000EE100A70EE800A49F69A10C3F62A
:100BC000597000EE100A80EE801AB7EE000A21EE8E
:100BD000000A40F2FC10C2F2000080ED000A05E0BD
:100BE000002040F2FC11C2F20001086040F2807067
:100BF000C2F20000D0ED120A49F69A10C3F619604D
:100C000000EE100AF4EEC00AF1EE10FA0BDD00203F
:100C100040F2FC11C2F200010860022040F20521FE
:100C2000C2F200010870002040F20421C2F200016B
:100C3000087038E0012040F20421C2F2000108707F
:100C400040F21000C2F200000068D0ED020A49F63E
:100C50009A10C3F6196000EE100AF4EEC00AF1EE25
:100C600010FA17D240F21000C2F200000068D0ED76
:100C7000020A49F69A10CBF6196000EE100AF4EE5B
:100C8000C00AF1EE10FA05DD032040F20521C2F2A0
:100C90000001087007E0012040F20421C2F20001C7
:100CA000087000E000BF00BF40F20520C2F2000063
:100CB0000078022806D040F20520C2F20000007839
:100CC00003280ED1002000EE900A0020C4F29640C6
:100CD00000EE100A00F0A1F909F064F805F0CDFF6C
:100CE00012E040F20520C2F20000007801280BDB80
:100CF000002000EE900A0020C4F2964000EE100A98
:100D000000F08BF900F019FA10BD00B5002040F298
:100D10000521C2F20001087040F20421C2F2000174
:100D2000087000F03AF9002040F2C411C2F200014C
:100D3000086000BD40F20420C2F20000007860B9F3
:100D400040F2FC10C2F2000090ED002A40F2F810D0
:100D5000C2F2000080ED002A74E040F20420C2F2EA
:100D60000000007801286DD140F21000C2F20000AE
:100D70000068D0ED022A49F69A10C3F6196002EE17
:100D8000100AF4EEC22AF1EE10FA21DD40F2100052
:100D9000C2F200000068D0ED022A49F69A10C3F6AC
:100DA000196002EE100A32EEC23A49F69A10C3F602
:100DB000597002EE100AC3EE022AB0EE002A22EEAB
:100DC000822A40F2F810C2F2000080ED002A39E0D9
:100DD00040F21000C2F200000068D0ED022A49F68D
:100DE0009A10CBF6196002EE100AF4EEC22AF1EE68
:100DF00010FA21D240F21000C2F200000068D0EDDB
:100E0000022A49F69A10C3F6196002EE100A72EE31
:100E1000822A49F69A10C3F6597002EE100A82EE41
:100E2000823AB7EE002A23EE022A40F2F810C2F20C
:100E3000000080ED002A05E0002040F2F811C2F227
:100E40000001086040F20420C2F200000078D0B92E
:100E500040F2F410C2F20000D0ED002A40F2F81087
:100E6000C2F2000090ED003A4DF20A70C3F6235032
:100E700002EE100A43EE022A40F2F410C2F2000021
:100E8000C0ED002A20E040F20420C2F20000007809
:100E9000012819D140F2F410C2F20000D0ED002A6E
:100EA00040F2F810C2F2000090ED003A4DF20A70E4
:100EB000C3F6A34002EE100A43EE022A40F2F410F9
:100EC000C2F20000C0ED002A40F20020C2F2000091
:100ED00090ED002A70EE422A40F2E810C2F20000C3
:100EE00090ED003A82EE832A40F28070C2F2000058
:100EF000D0ED0F2A90ED1F3A72EEC32A72EE221A3D
:100F000040F20020C2F2000090ED002A70EEC22AEA
:100F100040F2E810C2F2000090ED003A82EE832A1F
:100F200040F28070C2F20000D0ED0F2A90ED1F3A1F
:100F300072EEC32A32EE221A40F2F410C2F200001E
:100F400090ED002AB4EEE12AF1EE10FA02DDB0EEE7
:100F5000612A05E040F2F410C2F2000090ED002A90
:100F600040F2F410C2F2000080ED002A90ED002A59
:100F7000B4EEC12AF1EE10FA02D2B0EE412A05E039
:100F800040F2F410C2F2000090ED002A40F2F4109A
:100F9000C2F2000080ED002A7047002040F2FC11F0
:100FA000C2F20001086040F2F811C2F200010860CC
:100FB00040F28070C2F2000090ED0F0AD0ED1F0ADF
:100FC00030EE600A40F2F410C2F2000080ED000A38
:100FD00040F2C410C2F2000090ED000A40F200207E
:100FE000C2F2000080ED000A0020C4F2163040F288
:100FF000E811C2F2000108600020C4F2343040F26F
:10100000EC11C2F200010860B3EE040A40F2F010E5
:10101000C2F2000080ED000A704700B5F0EE403AE1
:10102000B0EE604A00BF00BFF0EE440AB0EE630AC3
:10103000FFF780FE40F28070C2F2000090ED0F0AD0
:10104000D0ED1F0A30EE600AB0EE406A40F2F410B4
:10105000C2F2000090ED000A30EE460AB0EE405AAF
:1010600040F28070C2F2000090ED120A40F2F810D7
:10107000C2F20000D0ED000A30EEC00AF0EE405A95
:1010800040F2EC10C2F2000090ED000A20EE250ABA
:1010900040F2E810C2F20000D0ED000A00EE850A2E
:1010A00040F28070C2F20000D0ED180AF1EE600A42
:1010B00040F2F010C2F2000090ED001A01EE200A9A
:1010C000F0EE404A40F20020C2F2000090ED000A2B
:1010D00034EE800AB4EEE30AF1EE10FA04DD90ED8E
:1010E000000A33EEC00A01E0B0EE640AF0EE404AB6
:1010F00040F20020C2F2000090ED000A34EE800AB7
:10110000B4EEC40AF1EE10FA04D290ED000A34EE07
:10111000400A01E0B0EE640AF0EE404A40F20020DE
:10112000C2F2000090ED000A34EE800A40F2C410D2
:10113000C2F2000080ED000A00BD40F21000C2F2D1
:1011400000000068D0ED000A40F69220C3F6067059
:1011500000EE100A20EE800A40F23C20C2F20000AD
:1011600080ED000A40F21000C2F200000068D0EDED
:10117000010A40F69220C3F6067000EE100A20EE37
:10118000800A40F23820C2F2000080ED000A704769
:101190002DE9F34F89B0824641F2B400C2F200005B
:1011A00040890A99A1EB002441F2B400C2F2000088
:1011B00000890021E217A0FB043C01FB04C100FBF5
:1011C00002104022CDE902300023DDE90201FFF7E1
:1011D0003AF841F2B402C2F2000292884FF40033AE
:1011E000A2FB0323844608461CEB02015841CDE9CB
:1011F000061041F2B400C2F20000C0880021E217DC
:10120000A0FB043C01FB04C100FB02108022CDE9DD
:1012100002300023DDE90201FFF715F841F2B402C4
:10122000C2F2000252884FF48033A2FB0332C0188E
:101230005141CDE9040141F2B400C2F200008089BD
:101240000021E217A0FB043C01FB04C100FB0210DB
:101250004FF40002CDE902300023DDE90201FEF780
:10126000F2FF4FF4FA6110EB01094FF000010D4657
:101270000E460F468846B9F5FA6F13DAA9F5FA61FA
:10128000494301EB810000EBD0714D10EE17A9F539
:10129000FA61494301EB8100C11700EB91718F1096
:1012A0004FEAE7784FF62420CFF6FF70814516DA33
:1012B00009F2DC504043C0EBC000451946EBE07634
:1012C00009F2DC5101FB01F101EB410202EBC1002B
:1012D00000EBD0714FEA6101CF1948EBE178DDE90D
:1012E0000610491B60EB0600CDE90610DDE904108D
:1012F000C91B60EB0800CDE904100022DDE9040100
:10130000AAFB003C02FB00C00AFB01004FF40012E4
:10131000CDE900300023DDE90001FEF794FFDDE9AF
:101320000632C01A61EB02014FF400420023CDE9FE
:101330000201FEF788FF834600EE10BAB8EEC00A3D
:101340000BB0BDE8F08F3EB50446002500200290AA
:101350000190002280214FF44060C4F2020001F0AD
:10136000BCFFA02000EB4400C0B28DF80800322082
:10137000032301AA02A9009040F25430C2F20000F7
:1013800002F069FE012280214FF44060C4F20200A5
:1013900001F0A3FF9DF806009DF805104FF4807240
:1013A00012FB010528463EBD38B5044600228021C7
:1013B0004FF44060C4F2020001F08FFF04F14000DE
:1013C000C0B2009032230122694640F25430C2F28A
:1013D000000002F06FFD012280214FF44060C4F252
:1013E000020001F07AFF38BD10B50820FFF7DCFFDE
:1013F00010BD10B51820FFF7D7FF10BD10B500F0D5
:1014000044F800F003F8FFF7F4FF10BD10B5002416
:101410000AE02046FFF797FF41F2B401C2F2000153
:1014200021F81400601CC4B2082CF2DB10BD3EB5DC
:10143000002280214FF44060C4F2020001F04DFF11
:1014400000208DF808003220042301AA02A9009090
:1014500040F25430C2F2000002F0FDFD0122802172
:101460004FF44060C4F2020001F037FF9DF8050020
:10147000C0EB00409DF806104FF4807212FB010093
:101480009DF80710441820463EBD08B51E20009068
:10149000002280214FF44060C4F2020001F01DFFE1
:1014A00032230122694640F25430C2F2000002F0B9
:1014B00001FD0A2001F011FC012280214FF440605F
:1014C000C4F2020001F009FF08BD00BFFEE740F2D0
:1014D0008C20C2F2000090ED000A40F29820C2F287
:1014E0000000D0ED000A30EE200AF0EE000A80EE97
:1014F000201A40F27C20C2F2000080ED001A40F277
:101500009020C2F2000090ED000A40F29C20C2F24E
:101510000000D0ED000A30EE200AF0EE000A80EE66
:10152000201A40F28020C2F2000080ED001A7047BD
:1015300040F29420C2F2000090ED000A40F2A02098
:10154000C2F20000D0ED000A30EE200AF0EE000AF0
:1015500080EE201A40F28420C2F2000080ED001AD2
:10156000704710B5002040F22831C2F20001087027
:1015700040F22931C2F200010870642142F2E830E1
:10158000C2F20000FEF7A9FE10BD70B504460D467C
:1015900040F22B30C2F200000078012810D1002068
:1015A00040F22B31C2F2000108702A46214640F277
:1015B000AC40C2F2000003F0CBFC08B100F06CFCC0
:1015C00070BD10B500F018F900F04EF910BD70B5FF
:1015D0000446AA2042F25C41C2F200010870552084
:1015E00048700D2088700220C87020888880A088EC
:1015F000C88020890881A0894881208A8881A08AA2
:10160000C8810E2142F25E40C2F200000BF056FF8C
:10161000054642F25C40C2F2000005821221FFF74B
:10162000B4FF70BD10B542F27030C2F200000FF08E
:10163000FEFF10BD70B5002500F0EBF808B1FFF714
:10164000F1FFC7E000F0F7F8044640F22A30C2F29A
:101650000000007805287CD241F6A051C0F60101B7
:10166000D1E800F0AA2C05D1012040F22A31C2F2C3
:1016700000010870ACE0552C06D1022040F22A315E
:10168000C2F20001087005E0002040F22A31C2F2E7
:10169000000108709CE0FFF764FF40F22830C2F2BE
:1016A00000000470002040F22931C2F200010870ED
:1016B0000878411C40F22932C2F20002117042F255
:1016C000E831C2F200010C54032040F22A31C2F288
:1016D000000108707CE040F22931C2F20001087874
:1016E000411C40F22932C2F20002117042F2E8318C
:1016F000C2F200010C541046017840F22830C2F2C8
:1017000000000078401C814205D1042040F22A31BB
:10171000C2F2000108705BE040F22931C2F2000120
:101720000878411C40F22932C2F20002117042F2E4
:10173000E831C2F200010C541046017840F2283022
:10174000C2F200000078C01C814237D142F2E83179
:1017500000E034E0C2F2000140F22830C2F20000A2
:101760000078401C095C42F2E832C2F2000240F20A
:101770002830C2F200000078801C105C41EA00258D
:1017800040F22830C2F200000178491C10460BF0EC
:1017900095FEA8420AD140F22830C2F2000001783A
:1017A00042F2E930C2F200000BF0C8FEFFF7D9FEAA
:1017B000002040F22A31C2F20001087008E0002047
:1017C00040F22A31C2F200010870FFF7CAFE00BFE2
:1017D00000BF00BF00F004F800287FF433AF70BDF5
:1017E00010B542F27030C2F200000FF030FF08B9BD
:1017F000012010BD0020FCE710B5642242F28431C4
:10180000C2F2000142F27030C2F200000FF016FF87
:1018100010BD42F27030C2F20000807C704710B5FB
:1018200042F27030C2F200000FF011FF08B901203F
:1018300010BD0020FCE710B542F27030C2F200008B
:101840000FF00EFF10BD10B50446E1B242F2703049
:10185000C2F200000FF019FF10BD10B5FFF7DFFF57
:1018600008B1FFF7E7FE10BD10B5012240F22D319F
:10187000C2F2000140F2AC40C2F2000003F082FA72
:1018800010BD10B5012040F22C31C2F200010870E9
:1018900040F22D30C2F200000078FFF7D4FF10BDF7
:1018A000012040F22B31C2F200010870704710B5E0
:1018B00040F24010C2F20000007820B1012848D068
:1018C000022845D18DE000F0B5FDFFF766FB05F07D
:1018D00068FE0DF008FD0DF022F9FFF716FA4FF43F
:1018E0007A7040F25411C2F200010968086040F2B7
:1018F0005411C2F200010968486040F25411C2F26A
:1019000000010968886040F25411C2F200010968C0
:10191000C86040F25411C2F200010968086140F247
:101920005411C2F200010968486140F25411C2F238
:1019300000010968886140F25411C2F2000109688F
:10194000C86140F25410C2F200000068FFF73FFE89
:1019500079E000F06FFDFFF720FB05F022FE0DF0AF
:10196000C2FC0DF0DCF8FFF7D0F906F061F94FF496
:10197000876040F25411C2F200010968086040F229
:101980005411C2F200010968486040F25411C2F2D9
:1019900000010968886040F25411C2F20001096830
:1019A000C86040F25411C2F200010968086140F2B7
:1019B0005411C2F200010968486140F25411C2F2A8
:1019C00000010968886140F25411C2F200010968FF
:1019D000C86140F25410C2F200000068FFF7F7FD42
:1019E00031E040F25810C2F200000088401C40F282
:1019F0005811C2F20001088008460088B0F5FA7F4D
:101A000001DB002004E040F25810C2F20000008820
:101A100040F25811C2F20001088006F009F940F2C4
:101A20005810C2F2000000880A2190FBF1F201FB7D
:101A3000120008B903F0C5FB0DF0C4FB0DF0FCF873
:101A400000F003F800BF00BF10BD10B540F2BC109D
:101A5000C2F2000090ED000A40F2C410C2F2000091
:101A6000D0ED000A40F2E410C2F2000090ED001A3E
:101A700000EE810A40F2B810C2F20000D0ED000A78
:101A800030EE200A40F2C010C2F20000D0ED000A91
:101A900070EE200A0020C4F2874000EE100A30EEFB
:101AA000800ABDEEC00A10EE100A00B240F25411D6
:101AB000C2F200010968086040F2BC10C2F20000E6
:101AC00090ED000A40F2C410C2F20000D0ED000A0E
:101AD00040F2E410C2F2000090ED001A10EE810A0C
:101AE00040F2B810C2F20000D0ED000A30EE200A39
:101AF00040F2C010C2F20000D0ED000A70EE600AA1
:101B00000020C4F2874000EE100A30EE800ABDEEDD
:101B1000C00A10EE100A00B240F25411C2F20001E5
:101B20000968486040F2BC10C2F2000090ED000A63
:101B300040F2C410C2F20000D0ED000A40F2E410FE
:101B4000C2F2000090ED001A10EE810A40F2B810C7
:101B5000C2F20000D0ED000A30EE600A40F2C01080
:101B6000C2F20000D0ED000A70EE200A0020C4F29C
:101B7000874000EE100A30EE800ABDEEC00A10EE7B
:101B8000100A00B240F25411C2F2000109688860E4
:101B900040F2BC10C2F2000090ED000A40F2C41006
:101BA000C2F20000D0ED000A40F2E410C2F20000E0
:101BB00090ED001A00EE810A40F2B810C2F2000067
:101BC000D0ED000A30EE600A40F2C010C2F2000010
:101BD000D0ED000A70EE600A0020C4F2874000EEEB
:101BE000100A30EE800ABDEEC00A10EE100A00B2F4
:101BF00040F25411C2F200010968C86040F254106A
:101C0000C2F2000000680068B0F5FA6F02DD4FF420
:101C1000FA6011E040F25410C2F20000006800685F
:101C2000B0F57A7F02DA4FF47A7005E040F2541092
:101C3000C2F200000068006840F25411C2F20001D4
:101C40000968086040F25410C2F200000068406861
:101C5000B0F5FA6F02DD4FF4FA6011E040F2541073
:101C6000C2F2000000684068B0F57A7F02DA4FF4F3
:101C70007A7005E040F25410C2F20000006840683B
:101C800040F25411C2F200010968486040F2541059
:101C9000C2F2000000688068B0F5FA6F02DD4FF410
:101CA000FA6011E040F25410C2F20000006880684F
:101CB000B0F57A7F02DA4FF47A7005E040F2541002
:101CC000C2F200000068806840F25411C2F20001C4
:101CD0000968886040F25410C2F200000068C068D1
:101CE000B0F5FA6F02DD4FF4FA6011E040F25410E3
:101CF000C2F200000068C068B0F57A7F02DA4FF4E3
:101D00007A7005E040F25410C2F200000068C0682A
:101D100040F25411C2F200010968C86040F2541048
:101D2000C2F200000068FFF752FC10BD10B540F28F
:101D3000EC40C2F2000000F0F0FD10BD10B540F222
:101D40004C50C2F2000000F0E8FD10BD10B540F2AA
:101D5000AC50C2F2000000F0E0FD10BD10B540F242
:101D60000C60C2F2000000F0D8FD10BD10B540F2CA
:101D70006C60C2F2000000F0D0FD10BD10B540F262
:101D8000CC60C2F2000000F0C8FD10BD014608782A
:101D900010381823B0FBF3F241F6E400C0F601005E
:101DA000805CC865032A05D908686FF30900001D27
:101DB000886503E008686FF309008865886D7047DF
:101DC000014600208A6A8B69CBB932B1012A0DD055
:101DD000022A03D0032A10D10EE000BFCB6A03F021
:101DE0008073B3F1807F00D1012007E0CB6AB3F1AB
:101DF000C07F00D1012001E000E000BF34E08B692A
:101E0000B3F5005F1AD132B1012A07D0022A03D0FC
:101E1000032A11D10AE000BF01200EE0CB6A03F0D3
:101E20008073B3F1807F00D1012006E0CB6AB3F16B
:101E3000C07F00D1012000E000BF15E032B1012ACF
:101E400005D0022A04D0032A0CD103E000BF00BF52
:101E5000012008E0CB6A03F08073B3F1807F00D1EA
:101E6000012000E000BF00BF704730B5046824685F
:101E700024F4802405682C60046863608468402C26
:101E800004D10468A2600468E16003E00468A16012
:101E90000468E26030BD7047704710B540F68C7042
:101EA000C2F2000004F0B3FB0446224640F68C71F7
:101EB000C2F2000140F26C40C2F2000003F048F8A8
:101EC00010BD10B5002201B909E0012901D10A02B3
:101ED00005E0022901D10A0201E04FF440720B280B
:101EE00000D9001D43F61043C4F202031B6823F41B
:101EF000407343F61044C4F20204236023461B6877
:101F00001343236023461B6823F0F8032360234612
:101F10001B68022444EAC004234343F61044C4F27D
:101F20000204236023461B6843F48033236010BD02
:101F30004FF47050C4F20200006800F40070E0B189
:101F40004FF47050C4F20200006820F400704FF4A7
:101F50007051C4F20201086000BF0846006840F4F6
:101F6000006008600846006820F40060086000BF58
:101F70000846006840F4007008604FF47050C4F2E6
:101F80000200006800F48060E0B14FF47050C4F2C9
:101F90000200006820F480604FF47051C4F2020126
:101FA000086000BF0846006840F48050086008469A
:101FB000006820F48050086000BF0846006840F4C4
:101FC00080600860704743F61042C4F20202126853
:101FD00022F4407243F61043C4F202031A6003294C
:101FE00009D11A461268DB131A4343F61043C4F2B0
:101FF00002031A601AE001290CD143F61042C4F220
:102000000202126842F0040243F61043C4F20203D3
:102010001A600BE043F61042C4F20202126842F466
:10202000004243F61043C4F202031A6043F6104222
:10203000C4F2020212684FF4803343EA00231A43C9
:1020400043F61043C4F202031A60704743F610428D
:10205000C4F20202126822F4407243F61043C4F242
:1020600002031A601A4612681A601A46126842F091
:1020700001021A600170704710B543F61041C4F2B6
:102080000201096821F4407143F61044C4F20204CD
:1020900021602146096841F44071216021460968A8
:1020A00041F001012160026000BF00BF00BFBFF32B
:1020B0006F8F00BF00BF00BF436010BD43F61042EA
:1020C000C4F20202126822F4407243F61043C4F2D2
:1020D00002031A601A46126842F480721A601A46A5
:1020E000126842F001021A600180704743F6104204
:1020F000C4F20202126822F4407243F61043C4F2A2
:1021000002031A601A46126842F400721A601A46F4
:10211000126842F001021A600160704743F60C40F9
:10212000C4F20200006800F0100088B142F2704072
:10213000C2F20000C06940F0100042F27041C2F2E9
:102140000001C861102043F60C41C4F2020108608E
:1021500043F60C40C4F20200006800F0200088B191
:1021600042F27040C2F20000C06940F0080042F242
:102170007041C2F20001C861202043F60C41C4F254
:102180000201086043F60C40C4F20200006800F04F
:10219000400088B142F27040C2F20000C06940F0D5
:1021A000040042F27041C2F20001C861402043F6CF
:1021B0000C41C4F20201086043F60C40C4F2020074
:1021C000006800F0800088B142F27040C2F2000066
:1021D000C06940F0020042F27041C2F20001C861E1
:1021E000802043F60C41C4F20201086043F60C4023
:1021F000C4F20200006800F4807090B142F27040B6
:10220000C2F20000C06940F0010042F27041C2F227
:102210000001C8614FF4807043F60C41C4F2020122
:10222000086043F60C40C4F20200006800F00200AF
:1022300088B142F27040C2F20000C06940F0200054
:1022400042F27041C2F20001C861022043F60C4123
:10225000C4F202010860704770B5044600250020F2
:1022600042F27041C2F20001C86101F03CF805463B
:1022700009E0601C38B124B101F035F8401BA042E0
:1022800001D9032070BD43F60C40C4F2020000687F
:1022900000F480300028ECD143F60C40C4F2020078
:1022A000006800F0010028B1012043F60C41C4F29F
:1022B0000201086043F60C40C4F20200006800F41A
:1022C000F97018B1FFF72AFF0120DBE70020D9E7FA
:1022D00010B5F3EE0E0A0020C4F2FA3000EE100A38
:1022E00040F28800C2F2000000680AF002FFF3EE3C
:1022F0000E0A0020C4F2FA3000EE100A40F28C0000
:10230000C2F2000000680AF0F4FEF3EE0E0A0020AC
:10231000C4F2FA3000EE100A40F29000C2F200005F
:1023200000680AF0E6FEF3EE0E0A0020C4F2FA306E
:1023300000EE100A40F29400C2F2000000680AF0B9
:10234000D8FEF3EE0E0A0020C4F2FA3000EE100AB6
:1023500040F29800C2F2000000680AF0CAFEF3EEF4
:102360000E0A0020C4F2FA3000EE100A40F29C007F
:10237000C2F2000000680AF0BCFE10BD10B50446B1
:10238000204605F0A8FE012240F2E421C2F200013D
:1023900040F2EC30C2F2000002F0F4FC10BD10B5C7
:1023A00000F01FF847F230520023194640F2E020B7
:1023B000C2F200000AF01AFF10BD10B541F2D400BD
:1023C000C2F200000FF033F910BD10B541F2D40095
:1023D000C2F200000FF03BF908B9012010BD002047
:1023E000FCE710B54FF4A06241F2E801C2F200012F
:1023F00041F2D400C2F200000FF020F910BD41F20A
:10240000D400C2F20000807C704710B541F2D400C5
:10241000C2F200000FF024F910BD10B540F2E42024
:10242000C2F20000017841F2D400C2F200000FF0C5
:102430002CF910BD002000EE100A40F28070C2F2AC
:102440000000D0ED0F0A40F27520C2F200000178C2
:102450000078401C40F27522C2F20002107040F673
:102460003C70C2F2000000EB8100C0ED000A104693
:102470000078132801DD002004E040F27520C2F24C
:102480000000007840F27521C2F2000108700020BF
:102490000DE040F63C71C2F2000101EB8001D1ED8C
:1024A000000A70EE800AB0EE600A411CC8B214281F
:1024B000EFDB4CF6CD40C3F64C5000EE900A60EED8
:1024C000200A40F28070C2F20000C0ED1F0A70477F
:1024D00010B52DED048BB0EE408A4EF28060C4F250
:1024E000C57000EE100AC8EE000AB0EE609A4DF218
:1024F0004E40C3F6426000EE900AB0EE490A08F082
:1025000005FFF7EE000A70EEC00A42F6C520C4F2DD
:102510002D7000EE100A20EE800AF0EE408AB0EE38
:10252000680ABDEC048B10BD10B500243AE1C82C3C
:1025300071DA41F28C00C2F2000003F0CEFA1420EE
:1025400000F0CBFBACB941F28C00C2F20000C088B5
:1025500040F25A01C2F20001088041F28C00C2F23E
:1025600000000089488041F28C00C2F200004089DE
:10257000888041F28C00C2F20000B0F9060040F2FF
:102580005A01C2F20001B1F90010401A00280DDD15
:1025900041F28C00C2F20000B0F9060040F25A018C
:1025A000C2F20001B1F90010401A0CE040F25A00EA
:1025B000C2F20000B0F9000041F28C01C2F2000149
:1025C000B1F90610401A40F26001C2F20001098818
:1025D000084440F26001C2F20001088041F28C0020
:1025E000C2F20000B0F9080040F25A01C2F2000144
:1025F000B1F90210401A00280EDD41F28C00C2F23F
:102600000000B0F9080040F25A01C2F20001B1F92D
:102610000210401A0DE082E040F25A00C2F20000BF
:10262000B0F9021041F28C00C2F20000B0F90800CB
:10263000081A40F26001C2F200014988084440F2E1
:102640006001C2F20001488041F28C00C2F2000039
:10265000B0F90A0040F25A01C2F20001B1F90410C7
:10266000401A00280DDD41F28C00C2F20000B0F9E2
:102670000A0040F25A01C2F20001B1F90410401AF6
:102680000CE040F25A00C2F20000B0F9041041F22E
:102690008C00C2F20000B0F90A00081A40F2600192
:1026A000C2F200018988084440F26001C2F20001D0
:1026B000888041F28C00C2F20000B0F9060040F2BE
:1026C000A001C2F200010968084440F2A001C2F270
:1026D0000001086041F28C00C2F20000B0F908006D
:1026E00040F2A401C2F200010968084440F2A401CA
:1026F000C2F20001086041F28C00C2F20000B0F9A1
:102700000A0040F2A801C2F200010968084440F240
:10271000A801C2F200010860601CC4B242E040F2AD
:102720006000C2F200000088B0F5FA7F0FDC40F2D2
:102730006000C2F200004088B0F5FA7F07DC40F28A
:102740006000C2F200008088B0F5FA7F24DD01202D
:1027500040F25801C2F2000108700024002040F24B
:10276000A001C2F20001086040F2A401C2F200011F
:10277000086040F2A801C2F20001086000BF08E052
:10278000002140F26002C2F2000222F81010411C47
:10279000C8B2032806DAF3E7002040F25801C2F27B
:1027A0000001087040F25800C2F2000000780028D2
:1027B0007FF4BDAE40F2A000C2F200000068C82164
:1027C00090FBF1F000B240F26601C2F20001088015
:1027D00040F2A400C2F200000068C82190FBF1F0B2
:1027E00000B240F26801C2F20001088040F2A80085
:1027F000C2F200000068C82190FBF1F000B240F284
:102800006A01C2F20001088010BD0EB503226946BC
:102810000420C0F60E0005F0B5FB9DED000AF8EEB1
:10282000400A0020C4F27A4000EE100A80EE801ABE
:1028300040F27C20C2F2000080ED001A9DED010AFA
:10284000F8EE400A0020C4F27A4000EE100A80EE52
:10285000801A40F28020C2F2000080ED001A9DED47
:10286000020AF8EE400A0020C4F27A4000EE100A94
:1028700080EE801A40F28420C2F2000080ED001A3F
:102880000EBD014691F83500022803D0802048652E
:1028900001207047052081F835000868006820F0A5
:1028A00001000A6810600020F3E770B504460CB917
:1028B000012070BD94F83500022800D1F9E72068A6
:1028C000006820F00100216808600020216808608D
:1028D00021684860216888602168C86021680861B3
:1028E0002120216848612046FFF750FA0546002064
:1028F000E06320646064A064E064206594F85C1088
:102900003F208840A8600020606584F8350000BF43
:1029100084F8340000BF00BFCBE7F8B504460020C0
:10292000009040F23C30C2F2000000684FF41651B3
:10293000B0FBF1F7A56D2E6894F85C100820884074
:10294000304098B12068006800F0040070B1206841
:10295000006820F004002168086094F85C100820EA
:102960008840A860606D40F00100606594F85C10DC
:1029700001208840304068B12068406900F0800044
:1029800040B194F85C1001208840A860606D40F070
:102990000200606594F85C1004208840304068B103
:1029A0002068006800F0020040B194F85C10042038
:1029B0008840A860606D40F00400606594F85C1089
:1029C00010208840304078B32068006800F008008C
:1029D00050B394F85C1010208840A860206800680C
:1029E00000F4802080B12068006800F4002028B93D
:1029F000206CC8B12046216C884715E0A06C98B1C6
:102A00002046A16C88470FE02068006800F48070C1
:102A100028B92068006820F0080021680860206C50
:102A200010B12046216C884794F85C102020884023
:102A30003040002865D02068006800F010000028B1
:102A40005FD094F85C1020208840A86094F835008E
:102A5000052828D12068006820F016002168086049
:102A60002068406920F0800021684861206C08B926
:102A7000A06C28B12068006820F008002168086078
:102A800094F85C103F208840A86000BF002084F8C4
:102A9000340000BF012084F83500206D10B12046BD
:102AA000216D8847F8BD2068006800F4802080B15F
:102AB0002068006800F4002028B9606C10B120463E
:102AC000616C88471DE0E06BD8B12046E16B884718
:102AD00017E02068006800F4807068B9206800681A
:102AE00020F010002168086000BF002084F8340046
:102AF00000BF012084F83500E06B10B12046E16B87
:102B00008847606D38B3606D00F00100F0B10520BA
:102B100084F835002068006820F001002168086012
:102B200000BF0098401C0090B84200D905E0206822
:102B3000006800F001000028F3D100BF00BF0020B2
:102B400084F8340000BF012084F83500E06C10B137
:102B50002046E16C884700BFA4E72DE9F041044618
:102B6000002500F0C0FB074614B90120BDE8F08144
:102B7000606A00B100BF00BF002084F8340000BFCD
:102B8000022084F835002068006820F001002168E8
:102B900008600AE000F0A7FBC01B052805D920202B
:102BA0006065032084F83500E0E72068006800F0E5
:102BB00001000028EED12068056848F23F00CFF2FE
:102BC00010000540D4E901010843E1680843216988
:102BD000084361690843A1690843E1690843216A20
:102BE00008430543606A042803D1D4E90B01084374
:102BF0000543206805602068456925F00705606A7F
:102C00000543606A04280DD1A06A0543E06A48B113
:102C10002046FFF7D5F828B140206065012084F8F0
:102C20003500A3E7206845612046FFF7AFF8064668
:102C300094F85C103F208840B0600020606501205F
:102C400084F83500002091E72DE9F04704460D4651
:102C500016461F464FF00008D4F8589000BF94F86D
:102C60003400012802D10220BDE8F087012084F859
:102C7000340000BF94F83500012825D1022084F8E3
:102C80003500002060653B46324629462046FFF766
:102C9000ECF894F85C103F208840C9F808002068E0
:102CA000006840F0160021680860206C28B1206898
:102CB000006840F00800216808602068006840F063
:102CC00001002168086006E000BF002084F834009D
:102CD00000BF4FF002084046C6E770B5044600F05A
:102CE00002FB06462546681C28B140F23830C2F285
:102CF00000000078054400BF00F0F5FA801BA842F0
:102D0000FAD370BD2DE9F04104460E460127002597
:102D100000BF42F27040C2F20000007E012802D1E2
:102D20000220BDE8F081012042F27041C2F20001B0
:102D3000087600BF4CF25030FFF78EFA0746002F9E
:102D40003FD1401E30602068012817D1207C616887
:102D5000FFF739F94CF25030FFF77EFA074643F699
:102D60001040C4F20200006820F0040020F400408B
:102D700043F61041C4F20201086020E0A56818E0A3
:102D8000217C2846FFF79DF84CF25030FFF764FA9B
:102D9000074643F61040C4F20200006820F0FA0033
:102DA00043F61041C4F2020108600FB1356005E03E
:102DB0006D1CD4E902100844A842E1D800BFFFF717
:102DC000B7F800BF002042F27041C2F2000108765D
:102DD00000BF3846A5E743F61040C4F20200006881
:102DE00040F0004043F61041C4F2020108600020A8
:102DF00070472DE9F04106460F4614461D464FF038
:102E0000010800BF42F27040C2F20000007E0128BB
:102E100002D10220BDE8F081012042F27041C2F2ED
:102E20000001087600BF4CF25030FFF715FA8046DB
:102E3000B8F1000F29D126B9E1B23846FFF706F9FB
:102E400012E0012E04D1A1B23846FFF737F90BE0AA
:102E5000022E04D121463846FFF748F904E0224605
:102E60002B463846FFF708F94CF25030FFF7F4F9DB
:102E7000804643F61040C4F20200006820F00100D2
:102E800043F61041C4F20201086000BF002042F284
:102E90007041C2F20001087600BF4046BAE7002048
:102EA00043F61041C4F20201096801F00041B1B1DA
:102EB00040F22311C4F2675143F60442C4F2020205
:102EC000116048F6AB11CCF6EF51116043F610419A
:102ED000C4F20201096801F0004101B1012070470C
:102EE000F0B50C460025002200230021C8E0012691
:102EF00006FA01F504EA0502AA427DD143F6080666
:102F0000C4F201068F0856F827308E07370F0F26B8
:102F1000BE4033400026C4F20206B04201D1002672
:102F200048E04FF48066C4F20206B04201D10126A7
:102F300040E04FF40066C4F20206B04201D102261E
:102F400038E04FF44066C4F20206B04201D10326D5
:102F500030E04FF48056C4F20206B04201D104269C
:102F600028E04FF4A056C4F20206B04201D1052673
:102F700020E04FF4C056C4F20206B04201D106264A
:102F800018E04FF4E056C4F20206B04201D1072621
:102F900010E04FF40056C4F20206B04201D10826F8
:102FA00008E04FF41056C4F20206B04201D10926DF
:102FB00000E00A268F073F0FBE409E4230D14FF4FB
:102FC0007056C4F20106366896434FF47057C4F247
:102FD00001073E603E1D366896433F1D3E603E1D24
:102FE000366896433F1D3E603E1D366896433F1D42
:102FF0003E608E07370F00E041E00F2606FA07F328
:1030000043F60806C4F201068F0856F827609E436F
:1030100043F60807C4F201074FEA910C47F82C6009
:1030200006684FEA410C032707FA0CF7BE43066017
:10303000CF0800F1200656F827604F074FEAD76CFB
:103040000F2707FA0CF7BE434FEAD10C00F1200717
:1030500047F82C60C6684FEA410C032707FA0CF7C3
:10306000BE43C660476801268E40B7434760866806
:103070004FEA410C032707FA0CF7BE438660491C50
:103080001029FFF434AFF0BDF8B502460B46002519
:103090000024002000211CE1012606FA01F51E682B
:1030A00006EA0504AC427DD15E68012E08D05E6858
:1030B000022E05D05E68112E02D05E68122E13D14A
:1030C00090684F000326BE40B0434F00DE68BE400C
:1030D00030439060506801268E40B0431E79C6F39D
:1030E00000168E4030435060D0684F000326BE402B
:1030F000B0434F009E68BE403043D0605E68022EF1
:1031000002D05E68122E13D1CF0802F1200656F8C5
:1031100027004E07F70E0F26BE40B0434F07FF0EA5
:103120001E69BE403043CF0802F1200646F8270052
:1031300010684F000326BE40B0431E7906F0030618
:103140004F00BE40304310605E6806F08056B6F116
:10315000805FA8D100BF0026009643F64406C4F263
:103160000206366846F4804643F64407C4F2020776
:103170003E603E46366806F48046009600BF00BFBB
:1031800043F60806C4F201068F0856F827008E079A
:10319000370F0F26BE40B0430026C4F20206B242EB
:1031A00003D100E094E0002648E04FF48066C4F2CA
:1031B0000206B24201D1012640E04FF40066C4F29B
:1031C0000206B24201D1022638E04FF44066C4F252
:1031D0000206B24201D1032630E04FF48056C4F219
:1031E0000206B24201D1042628E04FF4A056C4F2F0
:1031F0000206B24201D1052620E04FF4C056C4F2C7
:103200000206B24201D1062618E04FF4E056C4F29D
:103210000206B24201D1072610E04FF40056C4F274
:103220000206B24201D1082608E04FF41056C4F25B
:103230000206B24201D1092600E00A268F073F0F9D
:10324000BE40304343F60806C4F201068F0846F834
:1032500027004FF47056C4F201063068A0435E6840
:1032600006F48036B6F5803F00D120434FF4705607
:10327000C4F201063060361D3068A0435E6806F473
:103280000036B6F5003F00D1204343F60446C4F2B1
:1032900001063060361D3068A0435E6806F4801673
:1032A000B6F5801F00D1204343F60846C4F201065C
:1032B0003060361D3068A0435E6806F40016B6F52F
:1032C000001F00D1204343F60C46C4F201063060D3
:1032D000491C1029FFF4E0AEF8BD0AB1816101E09C
:1032E0000B048361704740F23030C2F20000006886
:1032F000704740F23030C2F20000006840F23831CE
:10330000C2F200010978084440F23031C2F20001F3
:103310000860704710B54FF47050C4F202000068A6
:1033200040F400704FF47051C4F202010860084686
:10333000006840F4806008600846006840F48070CF
:103340000860032000F0CBF8002000F004F800F043
:103350002BF8002010BD70B5044640F23830C2F2A0
:10336000000000784FF47A71B1FBF0F040F23C318C
:10337000C2F200010968B1FBF0F5284600F080FFB9
:1033800008B1012070BD102C0AD200222146501E27
:1033900000F067F840F23430C2F20000046001E04F
:1033A0000120EFE70020EDE708B500BF0020009006
:1033B00043F64400C4F20200006840F4804043F643
:1033C0004401C4F2020108600846006800F480402D
:1033D000009000BF00BF00BF00200090081F0068E1
:1033E00040F08050091F08600846006800F08050D7
:1033F000009000BF00BF052000F071F808BD10B5B7
:103400000146084600281ADB00F01F0301229A40FB
:103410004EF28013CEF20003440943F8242000BF8B
:1034200000BF00BFBFF34F8F00BF00BF00BF00BF92
:1034300000BF00BFBFF36F8F00BF00BF00BF00BF62
:1034400010BD01460846002809DB00F01F030122D9
:103450009A4043099B0003F1E023C3F8002100BF19
:1034600070472DE9F05F80460D461646002706F0AE
:103470004FFE074639462A46334601F00700C0F1A1
:10348000070ABAF1040F02D94FF0040A01E0C0F1B3
:10349000070AD14600F1040ABAF1070F02D24FF031
:1034A000000A01E0A0F1030AD4464FF0010A0AFA2B
:1034B00009FAAAF1010A0AEA020A0AFA0CFA4FF01A
:1034C000010B0BFA0CFBABF1010B0BEA030B4AEA05
:1034D0000B042146404606F023FEBDE8F09F00BFE6
:1034E00000F007024EF60C53CEF2000319684FF6B7
:1034F000FF03194041F0FD7343F0806343EA02216A
:103500004EF60C53CEF20003196000BF704770B541
:1035100004460D460CB9012070BD4FF47050C4F242
:103520000200006800F00F00A8420CD24FF4705166
:10353000C4F202010D700846006800F00F00A842B6
:1035400001D00120E8E7207800F0020002282FD106
:10355000207800F0040004280BD143F60800C4F2E0
:103560000200006840F4E05043F60801C4F2020192
:103570000860207800F0080008280BD143F6080006
:10358000C4F20200006840F4604043F60801C4F24F
:103590000201086043F60800C4F20200006820F04F
:1035A000F000A168084343F60801C4F20201086074
:1035B000207800F00100C0B36068012809D14FF401
:1035C0006050C4F202000068C0F34040D8B9012046
:1035D000A2E76068022802D06068032809D14FF48E
:1035E0006050C4F202000068C0F3406058B9012086
:1035F00092E74FF46050C4F202000068C0F340004C
:1036000008B9012088E743F60800C4F20200006808
:1036100020F003006168084343F60801C4F2020188
:103620000860FFF760FE064609E013E0FFF75BFE67
:10363000801B41F28831884201D903206CE743F6B0
:103640000800C4F20200006800F00C006168B0EBF2
:10365000810FEBD14FF47050C4F20200006800F00B
:103660000F00A8420CD94FF47051C4F202010D7042
:103670000846006800F00F00A84201D001204BE787
:10368000207800F0040004280DD143F60800C4F2AD
:103690000200006820F4E050E168084343F60801A6
:1036A000C4F202010860207800F0080008280ED15A
:1036B00043F60800C4F20200006820F4604021696B
:1036C00040EAC10043F60801C4F20201086000F0BC
:1036D00043F843F60801C4F202010968C1F303117B
:1036E00041F6EC02C0F60102515CC84040F23C31A8
:1036F000C2F20001086040F23430C2F200000068FB
:10370000FFF729FE002007E740F23C30C2F200003C
:103710000068704700B5FFF7F7FF43F60801C4F2F1
:1037200002010968C1F3822141F6FC02C0F60102E0
:10373000515CC84000BD00B5FFF7E6FF43F6080145
:10374000C4F202010968C1F3423141F6FC02C0F63D
:103750000102515CC84000BD2DE9F047002400255E
:103760000026A14643F60800C4F20200006800F0FB
:103770000C0020B1042807D008284ED109E04FF4EE
:103780001059C0F2F4094DE04FF45859C0F26E19C7
:1037900048E043F60400C4F20200006800F03F0471
:1037A00043F60400C4F20200006800F48000A0B1F7
:1037B0004FF45850C0F26E1043F60401C4F20201F7
:1037C0000968C1F38811A0FB01700146224600235D
:1037D0003846FCF707FD054613E04FF41050C0F2E1
:1037E000F40043F60401C4F202010968C1F3881130
:1037F000A0FB01700146224600233846FCF7F2FC8C
:10380000054643F60400C4F202000068C0F301401C
:10381000401C4600B5FBF6F904E04FF41059C0F225
:10382000F40900BF00BF4846BDE8F087F8B504467C
:103830000CB90120F8BD207800F00100002870D0FC
:1038400043F60800C4F20200006800F00C000428EF
:1038500012D043F60800C4F20200006800F00C0029
:10386000082817D143F60400C4F20200006800F4EF
:103870008000B0F5800F0DD14FF46050C4F202000B
:103880000068C0F3404000286AD06068002867D113
:103890000120CFE700BF6068B0F5803F0CD14FF446
:1038A0006050C4F20200006840F480304FF4605170
:1038B000C4F20201086026E06068B0F5A02F11D1C3
:1038C0004FF46050C4F20200006840F480204FF4CE
:1038D0006051C4F2020108600846006840F480307C
:1038E000086010E04FF46050C4F20200006820F459
:1038F00080304FF46051C4F202010860084600684D
:1039000020F48020086000BF6068A8B1FFF7EBFCDE
:10391000054607E0FFF7E7FC401B642802D90320B7
:1039200088E71DE04FF46050C4F202000068C0F365
:1039300040400028EED013E0FFF7D5FC054606E036
:10394000FFF7D1FC401B642801D9032072E74FF434
:103950006050C4F202000068C0F340400028EFD17C
:10396000207800F00200022879D143F60800C4F262
:103970000200006800F00C0080B143F60800C4F2B9
:103980000200006800F00C00082824D143F604006F
:10399000C4F20200006800F48000E0B94FF4605007
:1039A000C4F202000068C0F3400020B1E0680128C2
:1039B00001D001203EE74FF46050C4F202000068DD
:1039C00020F0F800216940EAC1004FF46051C4F2D0
:1039D0000201086043E0E06840B301200021C4F226
:1039E00047210860FFF77FFC054606E0FFF77BFCF8
:1039F000401B022801D903201CE74FF46050C4F299
:103A000002000068C0F340000028EFD04FF460507F
:103A1000C4F20200006820F0F800216940EAC10009
:103A20004FF46051C4F20201086018E00020002148
:103A3000C4F247210860FFF756FC054606E0FFF791
:103A400052FC401B022801D90320F3E64FF46050DA
:103A5000C4F202000068C0F340000028EFD12078D3
:103A600000F00800082836D16069D0B101204FF479
:103A70006861C4F247210860FFF735FC054606E09F
:103A8000FFF731FC401B022801D90320D2E643F6A0
:103A90007400C4F202000068C0F340000028EFD0B8
:103AA00019E000204FF46861C4F247210860FFF775
:103AB0001AFC054606E0FFF716FC401B022801D958
:103AC0000320B7E643F67400C4F202000068C0F3B6
:103AD00040000028EFD1207800F0040004287CD1B9
:103AE00000274FF46150C4F20200006800F08050DB
:103AF000B0B900BF002000904FF46150C4F2020042
:103B0000006840F080504FF46151C4F20201086037
:103B10000846006800F08050009000BF00BF0127F9
:103B20004FF4E040C4F20000006800F48070F8B97F
:103B30004FF4E040C4F20000006840F480704FF49D
:103B4000E041C4F200010860FFF7CDFB054606E046
:103B5000FFF7C9FB401B022801D903206AE64FF496
:103B6000E040C4F20000006800F480700028EFD04C
:103B700000BFA06801280CD143F67000C4F2020017
:103B8000006840F0010043F67001C4F202010860D1
:103B900027E0A068052811D143F67000C4F20200A6
:103BA000006840F0040043F67001C4F202010860AE
:103BB0000846006840F00100086012E043F670001B
:103BC000C4F20200006820F0010043F67001C4F264
:103BD000020108600846006800E041E020F00400AF
:103BE000086000BFA068B0B1FFF77DFB054608E0A4
:103BF000FFF779FB401B41F28831884201D903204D
:103C000018E643F67000C4F202000068C0F34000FA
:103C10000028EDD015E0FFF766FB054608E0FFF74A
:103C200062FB401B41F28831884201D9032001E642
:103C300043F67000C4F202000068C0F340000028A0
:103C4000EDD1012F0BD14FF46150C4F20200006896
:103C500020F080504FF46151C4F20201086000BFAF
:103C6000A069002852D043F60800C4F202000068A0
:103C700000F00C00082864D0A069022847D1002079
:103C80000021C4F247210866FFF72DFB054606E038
:103C9000FFF729FB401B022801D90320CAE54FF496
:103CA0006050C4F202000068C0F340600028EFD109
:103CB000D4E907010843616A40EA81110122A06A40
:103CC000C2EB500041EA00412C20005D41EA006057
:103CD00043F60401C4F20201086001200021C4F28D
:103CE00047210866FFF7FFFA054606E0FFF7FBFAF3
:103CF000401B022801D903209CE54FF46050C4F218
:103D000002000068C0F340600028EFD03EE00020D1
:103D10000021C4F247210866FFF7E5FA054606E0F0
:103D2000FFF7E1FA401B022801D9032082E54FF496
:103D30006050C4F202000068C0F340600028EFD178
:103D400024E0A069012800D174E543F60800C4F21C
:103D50000200066806F48001E069814214D106F091
:103D60003F01206A81420FD147F6C0703040616A3E
:103D7000884209D106F44031A06A814204D106F09C
:103D80007061E06A814201D0012053E5002051E5D5
:103D900010B504460CB9012010BD606A00B900BF1F
:103DA0000021A16294F8510028B9002084F8500045
:103DB000204600F033F8022084F8510020680068A3
:103DC00020F0400021680860D4E901010843E1685F
:103DD00008432169084361690843218B01F400719C
:103DE0000843E1690843216A0843A16A084321683E
:103DF00008600421A06901EA1040616A0843216853
:103E000048602068C06920F400602168C861002013
:103E10006065012084F851000020BDE710B586B030
:103E20000446142101A8FCF758FA4FF44051C4F29B
:103E30000101206888423BD100BF0020009043F67A
:103E40004400C4F20200006840F4805043F644018C
:103E5000C4F2020108600846006800F48050009037
:103E600000BF00BF00BF0020009043F63000C4F246
:103E70000200006840F0010043F63001C4F2020184
:103E800008600846006800F00100009000BF00BF15
:103E9000E020019002200290002003900320049073
:103EA0000520059001A90020C4F20200FFF7ECF8FC
:103EB00006B010BD2DE9F84F0446884616461D464B
:103EC0004FF0000A00BF94F85000012802D10220F0
:103ED000BDE8F88F012084F8500000BFFFF703FA17
:103EE0000746B14694F85100012802D04FF0020A6B
:103EF000A7E0B8F1000F00D016B94FF0010AA0E01A
:103F0000032084F8510000206065C4F83080A68644
:103F1000E686A063A087E08760642064A068B0F5AF
:103F2000004F05D12068006840F480402168086097
:103F30002068006800F04000402805D02068006834
:103F400040F0400021680860E068B0F5006F2FD1B4
:103F5000606810B1B9F1010F09D1206B00882168A8
:103F6000C860206B801C2063E08E401EE0861BE052
:103F70002068806800F0020002280AD1206B0088C7
:103F80002168C860206B801C2063E08E401EE086A4
:103F90000AE0FFF7A8F9C01BA84201D3681C00B9CA
:103FA00015B94FF0030A4CE0E08E0028E0D12EE076
:103FB000606810B1B9F1010F09D1206B0078216858
:103FC0000873206B401C2063E08E401EE0861BE0DF
:103FD0002068806800F0020002280AD1206B007877
:103FE00021680873206B401C2063E08E401EE08631
:103FF0000AE0FFF778F9C01BA84201D3681C00B99A
:1040000015B94FF0030A1CE0E08E0028E0D13A46D3
:104010002946204603F082FE08B120206065A06892
:1040200050B900BF002000902068C0680090206850
:104030008068009000BF00BF606D08B14FF0010ABA
:1040400000BF012084F8510000BF002084F8500018
:1040500000BF50463CE72DE9FF5F04468846914685
:104060001D460E9E012002900020019000BF94F892
:104070005000012803D1022004B0BDE8F09F0120C8
:1040800084F8500000BFFFF72EF9074694F851B0AE
:1040900060680390AA46BBF1010F0BD00398B0F5FE
:1040A000827F04D1A06810B9BBF1040F02D00220B6
:1040B0000190DBE0B8F1000F03D0B9F1000F00D0A0
:1040C00015B901200190D1E094F85100042802D0E4
:1040D000052084F8510000206065C4F83890E58719
:1040E000A587C4F83080E586A586206460642068D2
:1040F000006800F04000402805D02068006840F0CB
:10410000400021680860E068B0F5006F4AD160683F
:1041100010B1BAF1010F09D1206B00882168C86085
:10412000206B801C2063E08E401EE08633E0206818
:10413000806800F00200022810D1E08E70B1029871
:1041400001280BD1206B00882168C860206B801C7F
:104150002063E08E401EE086002002902068806888
:1041600000F0010068B1E08F58B12068C068A16B11
:104170000880A06B801CA063E08F401EE0870120B8
:104180000290FFF7B0F8C01BB04204D3701C10B10E
:10419000032001906AE0E08E0028C8D1E08F00285B
:1041A000C5D14AE0606810B1BAF1010F09D1206BA6
:1041B000007821680873206B401C2063E08E401E4D
:1041C000E08634E02068806800F00200022810D108
:1041D000E08E70B1029801280BD1206B0078216825
:1041E0000873206B401C2063E08E401EE086002098
:1041F00002902068806800F0010068B1E08F58B13B
:104200002068C068A16B0870A06B401CA063E08FA1
:10421000401EE08701200290FFF765F8C01BB04206
:1042200001D3701C00B916B9032001901EE0E08E86
:104230000028C7D1E08F0028C4D13A463146204635
:1042400003F06CFD20B101200190202060650DE09D
:10425000A06850B900BF002000902068C06800909E
:1042600020688068009000BF00BF00BF012084F874
:10427000510000BF002084F8500000BF0198FBE609
:1042800070B504462546681EB0F1807F01D3012039
:104290000FE0681E4FF0E02148610F214FF0FF3022
:1042A00005F03EFF00204FF0E02188610720086103
:1042B000002070BD7047704730B502460B4600BF06
:1042C00092F83C00012801D1022030BD012082F883
:1042D0003C0000BF022082F83D001068446810686E
:1042E000816824F070041868044310684460002555
:1042F000C4F201051068A8422DD01068B0F1804FBB
:1043000029D04FF48065C4F200051068A84222D07D
:104310004FF40065C4F200051068A8421BD04FF4AA
:104320004065C4F200051068A84214D04FF48065BF
:10433000C4F201051068A8420DD04FF48045C4F2C4
:1043400001051068A84206D04FF4C055C4F200051C
:104350001068A84205D121F0800158680143106817
:104360008160012082F83D0000BF002082F83C00FF
:1043700000BF00BFA9E710B504460CB9012010BD6D
:1043800094F83D0028B9002084F83C00204600F055
:104390000CF8022084F83D00211D206805F01AF871
:1043A000012084F83D000020E9E738B504464FF4C9
:1043B0008051C4F20001206888421DD100BF002056
:1043C00000904FF46150C4F20200006840F0100009
:1043D0004FF46151C4F2020108600846006800F021
:1043E0001000009000BF00BF002211463620FFF7EA
:1043F00038F83620FFF725F838BD01460868C06850
:1044000040F001000B68D8600868806800F007027F
:10441000062A05D00868006840F001000B681860A3
:1044200000207047704710B5044620680069C0F34B
:104430004000D8B12068C068C0F34000B0B16FF050
:10444000020021680861012020772068806900F05F
:10445000030018B12046FFF7E5FF05E0204600F015
:10446000ADF8204600F0ABF8002020772068006906
:10447000C0F38000D8B12068C068C0F38000B0B13C
:104480006FF00400216808610220207720688069AD
:1044900000F4407018B12046FFF7C4FF05E0204645
:1044A00000F08CF8204600F08AF800202077206881
:1044B0000069C0F3C000D8B12068C068C0F3C00074
:1044C000B0B16FF0080021680861042020772068EF
:1044D000C06900F0030018B12046FFF7A3FF05E014
:1044E000204600F06BF8204600F069F800202077A5
:1044F00020680069C0F30010D8B12068C068C0F31C
:104500000010B0B16FF0100021680861082020771A
:104510002068C06900F4407018B12046FFF782FFA0
:1045200005E0204600F04AF8204600F048F8002058
:1045300020772068006900F0010058B12068C06849
:1045400000F0010030B16FF00100216808612046E1
:1045500000F036F820680069C0F3C01058B1206838
:10456000C068C0F3C01030B16FF0800021680861EE
:104570002046FFF79FFE20680069C0F3801058B105
:104580002068C068C0F3801030B16FF0400021682F
:104590000861204600F01BF820680069C0F3401055
:1045A00058B12068C068C0F3401030B16FF02000EF
:1045B000216808612046FFF77EFE10BD70477047F6
:1045C000012140F20002C2F20002117070477047F0
:1045D00010B504460CB9012010BD242084F8390020
:1045E0002068C06820F400502168C860204600F0B0
:1045F000F1F80020E06384F8390084F83A0000BF45
:1046000084F8380000BF00BFE6E770472DE9F047A7
:104610000446206805682068C668206847694FF02E
:104620000008C14605F00F08B8F1000F0AD105F0E7
:10463000200038B106F0200020B1204605F0C1F876
:10464000BDE8F087B8F1000F75D007F0010018B988
:1046500006F4907000286ED005F0010030B106F429
:10466000807018B1E06B40F00100E06305F00400D9
:1046700030B107F0010018B1E06B40F00200E063D8
:1046800005F0020030B107F0010018B1E06B40F016
:104690000400E06305F0080048B106F0200010B9FE
:1046A00007F0010018B1E06B40F00800E063E06B38
:1046B00088B305F0200028B106F0200010B1204694
:1046C00005F07FF820684069C0F38019E06B00F0C6
:1046D000080010B9B9F1000F26D0204605F047F8C0
:1046E0002068406900F04000402819D120684069E6
:1046F00020F0400021684861606B68B149F2736046
:10470000C0F60000616B0865606BFEF7BAF810B187
:10471000606B016D88470CE02046FFF776FF08E0EC
:104720002046FFF772FF04E02046FFF76EFF0020EF
:10473000E06385E7FFE705F0800030B106F0800018
:1047400018B1204605F09AFA7AE705F0400030B13A
:1047500006F0400018B1204605F019F870E700BFD8
:104760006EE710B504460CB9012010BDA06900B178
:1047700000E000BF94F8390028B9002084F8380020
:10478000204600F0B3F8242084F839002068C0687F
:1047900020F400502168C860204605F065F82068C4
:1047A000006920F49040216808612068406920F089
:1047B0002A00216848612068C06840F400502168E0
:1047C000C8600020E063202084F8390084F83A00B3
:1047D0000020CAE710B504464FF49841C4F2000126
:1047E0002068884218D14FF46150C4F2020000687A
:1047F00020F400204FF46151C4F20201086003214B
:104800000020C4F20200FEF76BFB606BFEF74DF870
:104810003420FEF7F4FD68E04FF4F041C4F20001EB
:10482000206888421AD14FF46150C4F20200006837
:1048300020F080404FF46151C4F2020108604FF44F
:10484000C0714FF48050C4F20200FEF749FB606B68
:10485000FEF72BF85220FEF7D2FD46E04FF48841D8
:10486000C4F20001206888421CD14FF46150C4F2A8
:104870000200006820F400304FF46151C4F20201DC
:10488000086060214FF44060C4F20200FEF728FB8C
:10489000606BFEF70AF8206BFEF707F82620FEF79C
:1048A000AEFD22E04FF4A051C4F20101206888421D
:1048B0001BD143F64400C4F20200006820F020003F
:1048C00043F64401C4F202010860C0214FF40060C5
:1048D000C4F20200FEF704FB606BFDF7E6FF206BFD
:1048E000FDF7E3FF4720FEF78AFD10BD10B586B047
:1048F0000446142101A8FBF7F0FC4FF49841C4F2E0
:1049000000012068884271D100BF002000904FF460
:104910006150C4F20200006840F400204FF461517D
:10492000C4F2020108600846006800F4002000900C
:1049300000BF00BF00BF0020009043F63000C4F26B
:104940000200006840F0010043F63001C4F20201A9
:1049500008600846006800F00100009000BF00BF3A
:104960000320019002200290012003900320049074
:104970000820059001A90020C4F20200FEF784FB84
:1049800046F24000C4F2020040F2EC41C2F20001E3
:10499000086040054860002140F2EC40C2F200008F
:1049A0008160C1604FF480610161002141618161DA
:1049B0004FF48071C1610902016200214162FEF77A
:1049C000CCF808B1FDF768FA00BF40F2EC40C2F243
:1049D00000006063846300BF012200213420FEF7E1
:1049E00040FD3420FEF72DFDCAE1FFE74FF4F04112
:1049F000C4F200012068884273D100BF00200090FB
:104A00004FF46150C4F20200006840F080404FF45F
:104A10006151C4F2020108600846006800F080405D
:104A2000009000BF00BF00BF0020009043F63000A0
:104A3000C4F20200006840F0100043F63001C4F2F6
:104A4000020108600846006800F01000009000BFF6
:104A500000BF4FF4C070019002200290012003902B
:104A6000032004900820059001A94FF48050C4F25F
:104A70000200FEF709FB46F25800C4F2020040F2C1
:104A80004C51C2F2000108604FF0206048600021E4
:104A900040F24C50C2F200008160C1604FF480616E
:104AA00001610021416181614FF48071C161002188
:104AB00001624162FEF751F808B1FDF7EDF900BF60
:104AC00040F24C50C2F200006063846300BF0222D7
:104AD00000215220FEF7C5FC5220FEF7B2FC4FE148
:104AE000FFE74FF48841C4F20001206888427DD17D
:104AF00000BF002000904FF46150C4F20200006833
:104B000040F400304FF46151C4F2020108600846DD
:104B1000006800F40030009000BF00BF00BF00201C
:104B2000009043F63000C4F20200006840F0080034
:104B300043F63001C4F2020108600846006800F044
:104B40000800009000BF00BF60200190022002908A
:104B500000200390032004900720059001A94FF442
:104B60004060C4F20200FEF78FFA46F28800C4F2F9
:104B7000020040F2AC51C2F2000108604FF0006048
:104B80004860002140F2AC50C2F200008160C16078
:104B90004FF4806101610021416181614FF48071B6
:104BA000C1614902016200214162FDF7D6FF08B1EF
:104BB000FDF772F900BF40F2AC50C2F20000606332
:104BC000846300BF46F2A000C4F2020040F20C6110
:104BD000C2F2000108604FF000604860402140F2DE
:104BE0000C60C2F200008160002100E022E0C160A0
:104BF0004FF480610161002141618161C1614FF425
:104C00000031016200214162FDF7A7FF08B1FDF705
:104C100043F900BF40F20C60C2F2000020638463DD
:104C200000BF002201212620FEF71BFC2620FEF7F4
:104C300008FCA5E04FF4A051C4F2010120688842AD
:104C4000F7D100BF0020009043F64400C4F20200F8
:104C5000006840F0200043F64401C4F202010860FD
:104C60000846006800F02000009000BF00BF00BFB1
:104C70000020009043F63000C4F20200006840F0CB
:104C8000040043F63001C4F20201086008460068DF
:104C900000F00400009000BF00BFC020019002207F
:104CA000029000200390032004900820059001A9A1
:104CB0004FF40060C4F20200FEF7E6F946F2284025
:104CC000C4F2020040F26C61C2F20001086080058B
:104CD0004860002140F26C60C2F200008160C16057
:104CE0004FF4806101610021416181614FF4807165
:104CF000C1614FF44031016200214162FDF72DFF97
:104D000008B1FDF7C9F800BF40F26C60C2F20000C4
:104D10006063846300BF46F2A040C4F2020040F228
:104D2000CC61C2F2000108604FF020604860402171
:104D300040F2CC60C2F2000081600021C1604FF4FB
:104D400080610161002141618161C1614FF44031A5
:104D5000016200214162FDF700FF08B1FDF79CF8F8
:104D600000BF40F2CC60C2F200002063846300BF49
:104D7000012200214720FEF774FB4720FEF761FB6C
:104D800006B010BD77B581B00446154694F83A00D8
:104D9000202859D1029800B115B9012004B070BD86
:104DA00000BF94F83800012801D10220F6E7012065
:104DB00084F8380000BF0298A062A5850020E06357
:104DC000222084F83A0049F2D760C0F60000616BF7
:104DD000C86349F21D70C0F60000616B086449F2B7
:104DE0008760C0F60000616BC8640020616B0865D5
:104DF00002AE32682368191D2B46606BFDF724FF55
:104E000000BF002000902068006800902068406883
:104E1000009000BF00BF00BF002084F8380000BF32
:104E20002068C06840F480702168C86020684069CC
:104E300040F00100216848612068406940F040006E
:104E4000216848610020A9E70220A7E710B50446C1
:104E50004FF49841C4F200012068884201D1FDF767
:104E6000DCFA4FF4A051C4F201012068884201D15C
:104E7000FCF707FD10BD70472DE9F84304460D46C9
:104E800016461F464FF0000994F8390020285DD1DE
:104E900005B116B90120BDE8F88300BF94F83800C9
:104EA000012801D10220F6E7012084F8380000BF74
:104EB0000020E063212084F83900FEF714FA8146CF
:104EC000A684E68400BF002084F8380000BF2BE0F1
:104ED000E08C401EE084A068B0F5805F16D14B46A0
:104EE000002280212046009704F0FCFE08B1032038
:104EF000D1E7A846B8F80000C0F308002168486070
:104F0000206908B9AD1C0FE06D1C0DE04B46002276
:104F100080212046009704F0E5FE08B10320BAE79F
:104F200015F8010B21684860E08C0028D0D14B4671
:104F3000002240212046009704F0D4FE08B103204F
:104F4000A9E7202084F839000020A4E70220A2E786
:104F5000F7B50446154694F83900202846D1019843
:104F600000B10DB90120FEBD00BF94F83800012842
:104F700001D10220F7E7012084F8380000BF019832
:104F80002062A584E5840020E063212084F83900B4
:104F900049F22B70C0F60000216BC86349F26170C2
:104FA000C0F60000216B086449F28760C0F600007B
:104FB000216BC8640020216B086501AE23681A1DAF
:104FC00031682B46206BFDF73FFE6FF040002168F3
:104FD000086000BF002084F8380000BF20684069E6
:104FE00040F08000216848610020BCE70220BAE759
:104FF00010B504464FF4A051C4F201012068884264
:1050000001D1FCF74DFC10BD704708B50A20FDF733
:1050100064FE702000906B46012200211E2003F0E8
:1050200001FB202000F05EF8012000906B46012279
:1050300002211E2003F0F6FA0A20FDF74EFE08BDFD
:105040002DE9F047044640F2D923C2F200030622BC
:1050500003211E2003F05EF840F2D920C2F20000C6
:10506000057890F801A08678C77890F8048090F8C9
:1050700005904AEA052000B200EE100AB8EEC00A18
:1050800084ED000A49EA082000B200EE100AB8EEEA
:10509000C00A84ED010A47EA062000B200EE100AB9
:1050A000B8EEC00A84ED020A94ED000A40F2D02066
:1050B000C2F20000D0ED000A80EE201A84ED001A42
:1050C00094ED010AD0ED000A80EE201A84ED011A59
:1050D00094ED020AD0ED000A80EE201A84ED021A47
:1050E000BDE8F08718B5044600946B4601221146CE
:1050F0001E2003F097FA40F2D820C2F2000004709C
:10510000802C29D006DC202C0BD0402C11D0602C18
:1051100049D117E0A02C29D0C02C31D0E02C42D1AD
:1051200038E04FF0894040F2D021C2F2000108601F
:1051300039E00020C4F2404040F2D021C2F2000128
:10514000086030E04FF40040C4F2194040F2D02132
:10515000C2F20001086026E04FF40040C4F2CF30F4
:1051600040F2D021C2F2000108601CE04FF4004080
:10517000C4F2B43040F2D021C2F20001086012E063
:105180004FF40040C4F2993040F2D021C2F2000145
:10519000086008E00020C4F25B3040F2D021C2F287
:1051A0000001086000BF00BF18BD08B501200090D5
:1051B0006B46012202211E2003F034FA08BD00BF15
:1051C000FEE710B540F25010C2F20000007810B1B6
:1051D000022846D11EE002F0E4F9FBF7DEFEFBF701
:1051E000ACFF40F21000C2F20000006890ED020A2D
:1051F000F7EE000A70EE200A0020C4F2284000EE0C
:10520000100A20EE800A40F2C410C2F2000080EDC5
:10521000000A26E040F20420C2F20000007810B933
:10522000FBF729FC1CE040F20420C2F200000078E9
:10523000012815D1002040F2FC11C2F200010860E3
:105240000020C4F2163000EE900A0020C4F296400E
:1052500000EE100AFBF7E1FE00F071FA01F00DFD1F
:1052600000BF00BF10BD10B52DED028B47F64850B2
:10527000C3F68B2008EE100A4EF60A00C3F69C20F7
:1052800008EE900A41F28C00C2F20000B0F906006C
:1052900040F26601C2F20001B1F90010401A00EEBE
:1052A000100AB8EEC00A20EE080A41F28C00C2F2E1
:1052B000000080ED060AB0F9080040F26801C2F271
:1052C0000001B1F90010401A00EE100AB8EEC00A51
:1052D00020EE080A41F28C00C2F2000080ED070ABD
:1052E000B0F90A0040F26A01C2F20001B1F90010FF
:1052F000401A00EE100AB8EEC00A20EE080A41F289
:105300008C00C2F2000080ED080AB0F9000000EE47
:10531000100AF8EEC00A40F27400C2F2000090EDEC
:10532000000A10EEA80A41F28C00C2F2000080EDE3
:10533000030AB0F9020000EE100AF8EEC00A40F2CB
:105340007800C2F2000090ED000A10EEA80A41F2C7
:105350008C00C2F2000080ED040AB0F9040000EEF7
:10536000100AF8EEC00A40F27C00C2F2000090ED94
:10537000000A10EEA80A41F28C00C2F2000080ED93
:10538000050AD0ED081AB0EE611AD0ED061AF1EE5A
:10539000611AF0EE610AD0ED071AB0EE610A00F171
:1053A0002002111F183004F09DF841F28C00C2F267
:1053B0000000D0ED051AB0EE611AD0ED031AF1EE3F
:1053C000611AF0EE610AD0ED041AB0EE610A00F144
:1053D0001402111F0C3004F085F841F28C00C2F267
:1053E0000000D0ED060AB0EE600A40F28800C2F27A
:1053F0000000006808F03EF940F28070C2F2000040
:1054000080ED030A41F28C00C2F20000D0ED070AE1
:10541000B0EE600A40F28C00C2F20000006808F0B2
:1054200029F9B1EE400A40F28070C2F2000080ED2E
:10543000040A41F28C00C2F20000D0ED080AB0EE7E
:10544000600A40F29000C2F20000006808F012F911
:10545000B1EE400A40F28070C2F2000080ED050A11
:1054600041F28C00C2F20000D0ED030AB0EE600AF7
:1054700040F29400C2F20000006808F0FBF840F22D
:105480008070C2F2000080ED000A41F28C00C2F28E
:105490000000D0ED040AB0EE600A40F29800C2F2BB
:1054A0000000006808F0E6F840F28070C2F20000E8
:1054B00080ED010A41F28C00C2F20000D0ED050A35
:1054C000B0EE600A40F29C00C2F20000006808F0F2
:1054D000D1F840F28070C2F2000080ED020A41F281
:1054E000C400C2F2000090ED010AB1EE400A40F2A1
:1054F0008070C2F2000080ED060A41F2C400C2F2E0
:10550000000090ED000A40F28070C2F2000080EDD1
:10551000070A41F2C400C2F2000090ED020A40F214
:105520008070C2F2000080ED080A40F26C00C2F206
:1055300000000088401C40F26C01C2F200010880AB
:1055400008460088B0F57A7F01DB002004E040F2D5
:105550006C00C2F20000008840F26C01C2F200014F
:105560000880084600880A2190FBF1F201FB120036
:1055700088B940F2C820C2F20000D0ED010AF8EE6E
:10558000E00AB0EE600AFCF7A3FF40F27000C2F23E
:10559000000080ED000A40F24C00C2F20000D0EDA5
:1055A000000A49F69A10C3F6197000EE100A60EE70
:1055B000800A40F28070C2F2000090ED041A4CF6AE
:1055C000CD40C3F6CC6000EE100A40EE010A40F276
:1055D0004C00C2F20000C0ED000A40F25000C2F2DE
:1055E0000000D0ED000A49F69A10C3F6197000EEDB
:1055F000100A60EE800A40F28070C2F2000090ED66
:10560000031A4CF6CD40C3F6CC6000EE100A40EE13
:10561000010A40F25000C2F20000C0ED000A40F260
:105620005400C2F20000D0ED000A49F69A10C3F609
:10563000197000EE100A60EE800A40F28070C2F22B
:10564000000090ED051A4CF6CD40C3F6CC6000EE9C
:10565000100A40EE010A40F25400C2F20000C0ED10
:10566000000A40F23000C2F2000090ED000A40F261
:105670008070C2F2000080ED090A40F23400C2F2EC
:10568000000090ED000AB1EE400A40F28070C2F2D4
:10569000000080ED0A0A40F23800C2F2000090EDEE
:1056A000000AB1EE400A40F28070C2F2000080EDC4
:1056B0000B0ABDEC028B10BD10B50446012C06D0C0
:1056C000022C08D0032C09D0042C0ED109E00020B4
:1056D00000F0EDF90DE002F0D4FA0AE002F0F7FA7A
:1056E00007E0012000F0E3F903E0002000F0DFF91B
:1056F00000BF00BF10BD10B540F2B220C2F20000E2
:105700000078401C40F2B221C2F200010870084645
:105710000078322801DB002004E040F2B220C2F21F
:105720000000007840F2B221C2F20001087040F29D
:10573000B320C2F200000078FFF7BEFF10BD10B525
:105740002DED048B40F21000C2F20000006890EDD5
:10575000020A40F24C10C2F20000D0ED000ABFEE87
:10576000001A70EE810AB4EEE00AF1EE10FA7ED271
:1057700040F28070C2F2000090ED120A10EE101A92
:105780000846FAF74EFF41EC190BB0EE490AF0EE6D
:10579000690A05F069FDB0EE408AF0EE608A4FF0CC
:1057A000C04046F26661C3F6E67141EC100B53EC63
:1057B000102B51EC180BFAF747FF58D240F28070CB
:1057C000C2F2000090ED100A20EE000AD0ED110A9E
:1057D00090ED111A00EE810A10EE101A0846FAF741
:1057E00020FF41EC190BB0EE490AF0EE690A06F011
:1057F000EBF9B0EE408AF0EE608A00200021C3F69B
:10580000F07141EC100B53EC102B51EC180BFAF724
:105810001BFF2CD240F28070C2F2000090ED030A10
:1058200010EE101A0846FAF7FCFE41EC190BB0EE28
:10583000490AF0EE690A05F017FDB0EE408AF0EE75
:10584000608A4FF0804043F23331C3F6D37141ECAC
:10585000100B53EC102B51EC180BFAF7F5FE6AD233
:1058600040F28070C2F2000090ED040A00E062E0B5
:1058700010EE101A0846FAF7D4FE41EC190BB0EE00
:10588000490AF0EE690A05F0EFFCB0EE408AF0EE4E
:10589000608A4FF0804043F23331C3F6D37141EC5C
:1058A000100B53EC102B51EC180BFAF7CDFE42D233
:1058B00040F28070C2F2000090ED050A10EE101A5E
:1058C0000846FAF7AEFE41EC190BB0EE490AF0EECD
:1058D000690A05F0C9FCB0EE408AF0EE608A4FF02C
:1058E000804043F23331C3F6D37141EC100B53ECDB
:1058F000102B51EC180BFAF7A7FE1CD240F2C41083
:10590000C2F20000D0ED000A4FF40040C4F21D3096
:1059100000EE100AF4EEC00AF1EE10FA0BD840F2D5
:105920005A10C2F200000088401C40F25A11C2F224
:105930000001088005E0002040F25A11C2F2000187
:10594000088040F25A10C2F20000008819280ADBD1
:10595000002040F25A11C2F20001088040F24011CA
:10596000C2F200010870BDEC048B10BD10B504F04C
:10597000EFF910BD10B540F2BC20C2F20000006883
:10598000401C40F2BC21C2F20001086008460068D9
:1059900000F00100C0BB40F2B820C2F20000007865
:1059A00078B9012040F2B821C2F200010870FBF77B
:1059B0003EFD40F2C421C2F200010860FBF714FD75
:1059C00022E0002040F2B821C2F200010870FBF78B
:1059D0002EFD40F2C021C2F20001086040F2C42056
:1059E000C2F20000016840F2C020C2F2000000686C
:1059F000FBF7CEFBBDEEC00A40F2C820C2F20000A9
:105A000080ED010AFBF7F5FC10BD10B541F28C00EA
:105A1000C2F2000000F061F810BD00B540F2D420E1
:105A2000C2F200000068401C40F2D421C2F2000122
:105A300008600846006800F0030038B941F2C4006D
:105A4000C2F20000FFF7FCFAFFF7AFFB00BDB0EEBB
:105A5000401A90ED010AB5EEC00AF1EE10FA11D12C
:105A600000EE101AF8EE401A40F6DB72C4F2C902DA
:105A700000EE102A21EE800AF7EE001A81EE802A4D
:105A800080ED012AC0ED020A90ED010A30EE200AF5
:105A9000C0EE801A90ED000A31EE402A90ED000A27
:105AA00001EE820A80ED000A90ED000A704710B501
:105AB0000446012C08D1002201034FF48050C4F2A7
:105AC0000200FDF70AFC07E0012211034FF48050A9
:105AD000C4F20200FDF701FC10BD30B589B00446E8
