:020000040800F2
:100000009007002035010008DF1E0008851B00084E
:10001000DD1E000855030008CD2800080000000080
:100020000000000000000000000000009D2100080A
:10003000D305000800000000F11F00089F21000800
:100040004F0100084F0100084F0100084F01000850
:100050004F0100084F0100084F0100084F01000840
:100060004F0100084F0100084F0100084F01000830
:100070004F010008910500084F0100084F010008DA
:100080009D0500084F0100084F0100080000000016
:100090000000000000000000000000004F01000808
:1000A0004F0100084F0100084F0100082D220008F1
:1000B0004F0100084F0100084F0100084F010008E0
:1000C0004F0100084F0100084F0100084F010008D0
:1000D0004F0100084F010008B5280008C12800089A
:1000E0004F0100084F0100084F0100080000000008
:1000F0000000000000000000000000000000000000
:1001000000000000000000000000000000000000EF
:1001100000000000000000004F0100084F0100082F
:10012000DFF80CD000F004F900480047C1290008AE
:10013000900700200648804706480047FEE7FEE794
:10014000FEE7FEE7FEE7FEE7FEE7FEE7FEE7FEE787
:10015000E121000821010008D2B201E000F8012BE2
:10016000491EFBD270470022F6E710B513460A4637
:1001700004461946FFF7F0FF204610BDF0B480EAB0
:100180000102D40F4200B2EB410F02D202460846F0
:1001900011464A0042D0C30DDDB2C1F3C752AD1AB9
:1001A000202D35DAC1F3160141F4000204B15242A8
:1001B000C5F1200602FA06F12A411044B3EBD05FE4
:1001C00023D0C4B1012DA0EBC35009DCF0BC4FF02B
:1001D000004202EAC352DBB200F5000000F07AB838
:1001E000400000F1807000EBC350A0F1807040EA45
:1001F000D170490009E0490841EAC071A0EBC35041
:1002000000F50000400800EBC350F0BC00F059B806
:100210006142012202EB4101001BF6E7F0BC70478E
:1002200081F00041AAE780F00040A7E780EA0102E0
:1002300010B502F00043400022D04A001FD0010E4A
:1002400001EB1261C0F35600C2F3560240F4000005
:1002500042F40002A0FB022000047F39140400D005
:10026000401C50EA124001D44000491EC2B20C06A4
:1002700004EBD010401C4008802A02D003E000208C
:1002800010BD20F00100002900DA0020184310BD45
:1002900096230022114600F01DB820F00040C10D49
:1002A000C0F3160040F400007F2901DA00207047F7
:1002B000962903DCC1F19601C84070479639884001
:1002C00070470029A8BF7047401C490008BF20F0B4
:1002D0000100704710B4B0FA80FC00FA0CF050EA4C
:1002E000010404BF10BC704749B1CCF1200421FACD
:1002F00004F411FA0CF118BF012121430843A3EBC8
:100300000C01CB1D4FEA00614FEA102042BF0020D4
:1003100010BC704700EBC35010440029A4BF10BCB0
:100320007047401C490008BF20F0010010BC704716
:10033000064C074D06E0E06840F0010394E8070032
:1003400098471034AC42F6D3FFF7EEFE5C2B000862
:100350007C2B0008FEE7000003480021017041707B
:1003600064210248FFF7FFBE18000020140100209E
:100370000A460146C823014801F09DBB84020020C3
:1003800010B500F0C3F8BDE8104000F0E9B81CB5A6
:1003900000210091AA228DF8002055228DF801201D
:1003A000019102228DF802208DF803108DF80400CF
:1003B00003210DF1020002F0A9FAADF805000721B2
:1003C0006846FFF7D5FF1CBD10B586B0044618215E
:1003D0006846FFF7C8FEAA208DF8000055208DF86A
:1003E000010011208DF8020001208DF80300208803
:1003F000ADF804006088ADF80600A088ADF80800EC
:10040000E088ADF80A002089ADF80C006089ADF8ED
:100410000E00A089ADF81000E089ADF8120012219D
:100420000DF1020002F072FAADF8140016216846D0
:10043000FFF79EFF06B010BD2DE9F0412B48807CF0
:1004400010B12A4802F0E3FA284E4FF0010878363E
:100450000027274D00F04EF8002844D000F06AF83D
:10046000A97805293BD2DFE801F003080F15200029
:10047000AA28EFD185F80280ECE7552802D10220A6
:10048000A870E7E7AF70E5E72870307085F8018065
:100490000320F5E769787054491CC8B26870297860
:1004A000491C8842D6D10420EAE769787054491C77
:1004B000C8B268702978CA1C9042CBD17018491C08
:1004C000B0F801400948783002F020FAA04203D188
:1004D0002978701C02F036FAFFF73EFFD2E7AF70C2
:1004E000FFF73AFFB6E7BDE8F08100009C0000206E
:1004F0001800002010B5044802F098FA08B1002056
:1005000010BD012010BD00009C00002002496422A3
:10051000A1F1140002F081BAB000002010B5044827
:1005200002F084FA08B1002010BD012010BD0000C7
:100530009C000020014802F081BA00009C000020CD
:100540000146014802F08BBA9C00002010B5FFF76D
:10055000E5FF002803D0BDE81040FFF76DBF10BDD8
:1005600001220249024801F043BA00001E000020A7
:10057000840200200248012101718079FFF7E0BF69
:100580001800002001490120C870704718000020A1
:10059000014800F097B8000048030020014800F02F
:1005A00091B800000403002030B590F840500124B9
:1005B000AC40C56B6C60046863604368102B0368D3
:1005C00003D099600068C26030BD9A600068C16065
:1005D00030BD704770470000104810B50178012900
:1005E0000AD1002101700E48FFF7EEFE20210D48D0
:1005F00000F072FAFFF7CBFEFFF7A8FF0A4C208845
:1006000001F0DEFC608801F0E1FCA08801F0E4FC70
:10061000E088BDE8104001F0E5BC000000000020CB
:1006200030000020000C01407801002010B590F847
:1006300021100024022903D00421816301243DE01C
:1006400001680A6822F00E020A6001680A6822F056
:1006500001020A601A4A0168914201D1012121E098
:10066000174A1432914201D110211BE0144A28325A
:10067000914201D1891515E0114A3C32914201D1D4
:1006800089140FE00E4A5032914202D14FF480316A
:1006900008E00B4A6432914202D14FF4801101E02C
:1006A0004FF08071064A083A5160012180F821100C
:1006B000002180F82010416B01B18847204610BD11
:1006C000080002402DE9F05FC16B0B6801680A6801
:1006D000046C4FF0040C0CFA04FC4A4DDFF828A11E
:1006E0004A4E4B4FDFF82CB1DFF82CE11CEA030F28
:1006F0002DD05FEA427C2AD50A68920603D40A68A4
:1007000022F004020A600168A94201D1042119E023
:10071000514501D1402115E0B14202D14FF4806131
:1007200010E0B94202D14FF480410BE0594502D1AB
:100730004FF4802106E0714502D14FF4800101E0C1
:100740004FF080612F4A083A5160C16A3BE04FF098
:10075000020808FA04F818EA030F4FF000094FF0F6
:10076000010C35D05FEA827832D50A68920605D44A
:100770000A6822F00A020A6080F821C00168A942D2
:1007800001D1022119E0514501D1202115E0B142EA
:1007900002D14FF4007110E0B94202D14FF4005180
:1007A0000BE0594502D14FF4003106E0714502D10A
:1007B0004FF4001101E04FF00071124A083A516005
:1007C00080F82090816A00291AD0BDE8F05F0847C0
:1007D0000825A5401D4213D0120711D50A6822F042
:1007E0000E020A6090F84010C26B0CFA01F15160E1
:1007F000C0F838C080F821C080F82090016BE2E793
:10080000BDE8F09F080002401C000240300002409A
:1008100044000240580002406C00024030B528B34A
:1008200002C8134A14230A44B2FBF3F29200C263D3
:10083000104A8263022242770B6843F6F0729343B8
:10084000D0E900242243D0E902452C432243046925
:10085000224344692243846922431A430A600021E7
:100860004163012242770177084630BD012030BD47
:10087000F8FFFDBF0000024070B5044690F820006C
:10088000002501280CD0012084F8200094F8216074
:100890000020012E06D084F820000225284670BDD5
:1008A000022070BD022684F82160A06320680668DB
:1008B00026F0010606602046FFF776FEE06A002873
:1008C0002068016802D041F00E0106E021F0040129
:1008D00001602068016841F00A0101602068016838
:1008E00041F001010160D9E770B5044600F0FEF85F
:1008F0000546601C02D004480078044400F0F6F875
:10090000401BA042FAD370BD200000202DE9F84F13
:10091000DFF8A491002409F1040A0AF1040B23462C
:100920004FF00F080BF1040EBEE00127A7403A403C
:10093000BA4272D1DFF884C14D68A5EB0C0665455B
:100940002BD00DDC032D34D005DC35B3012D19D0AF
:10095000022D2FD11BE0112D16D0122D2AD119E016
:10096000B6F5881F19D006DCB6F5803F15D0B6F570
:10097000801F1FD111E0B6F5001F0ED0B6F5041F81
:1009800018D10AE0CB6815E0CB681B1D12E0CB68DC
:1009900008330FE0CB680C330CE08B682BB1012BD4
:1009A0004FF0080303D0476104E0042302E007612D
:1009B00000E00023FF2A01D8064601E000F104060A
:1009C0004FEA840501D9A5F12005376808FA05FC2E
:1009D00027EA0C0703FA05F547EA050737604D6873
:1009E000ED0060D5364DAE6946F00106AE61AD69E9
:1009F00024F0030605F001050095324D7719BE6815
:100A0000A5072D0F08FA05FC26EA0C06DFF8B8C08A
:100A1000604503D14FF0000C17E044E0DFF8ACC0B4
:100A2000604502D14FF0010C0FE0DFF8A4C0604533
:100A300002D14FF0020C08E0DFF898C0604502D107
:100A40004FF0030C01E04FF0040C0CFA05FC4CEAEB
:100A5000060CC7F808C04D68D9F80060ED034D4694
:100A600001D5164300E096432E604D68DAF8006029
:100A7000AD03554601D5164300E096432E604D6800
:100A8000DBF80060ED025D4601D5164300E09643B9
:100A90002E604D68DEF80060AD02754601D5164344
:100AA00000E096432E60641C0A6832FA04F57FF475
:100AB0003CAFBDE8F88F00000004014000001110B9
:100AC000001002400000014000080140000C0140FD
:100AD00000100140001401408068084000D001204F
:100AE00070470AB1016170470904FBE7014880685B
:100AF00070470000200000200248816802781144FD
:100B0000816070472000002010B5032000F078F8C5
:100B1000002000F005F800F023F8002010BD0000D0
:100B200070B50D4D04464FF47A712878B1FBF0F0A2
:100B30000A490968B1FBF0F000F0D8FA48B9102C66
:100B400007D200222146501E00F03AF800206C60C7
:100B500070BD012070BD0000200000202C0000208E
:100B60000E4808B5816941F001018161816901F098
:100B700001010091C16941F08051C161C06900F07B
:100B800080500090052000F03BF80549486820F0AF
:100B9000E06040F00070486008BD000000100240B6
:100BA00000000140002809DB00F01F0201219140F4
:100BB0004009800000F1E020C0F8001170470000FB
:100BC000F0B40E4B1B68C3F30223C3F10704042CDB
:100BD00000D904241D1D072D01D2002300E0DB1ED7
:100BE000012606FA04F56D1E0D409D409E40761EBE
:100BF000164045EA0601F0BC01F069BE0CED00E0CC
:100C0000064A00F0070110684FF6FF03184040EA5B
:100C10000120034908431060704700000CED00E01C
:100C20000000FA052DE9F041040027D02068334D7B
:100C3000810712D5400703D5686840F4E06068601A
:100C40002078000703D5686840F4605068606868E1
:100C5000A16820F0F000084368602078C00729D020
:100C60006068012804D02968022804D0890703E0BD
:100C70002968890300E08901002902DB0120BDE821
:100C8000F081696821F0030101436960FFF72EFFDD
:100C9000064641F2883706E0FFF728FF801BB8427E
:100CA00001D90320EBE76868616800F00C00B0EB45
:100CB000810FF1D12078400705D56868E16820F4FC
:100CC000E060084368602078000706D568682169FD
:100CD00020F4605040EAC100686000F037F86968AD
:100CE000074AC1F30311515CC84006490860064831
:100CF0000068FFF715FF0020C1E700000010024068
:100D0000422B00082C000020240000200448054944
:100D100000684968044AC1F30221515CC840704729
:100D20002C00002000100240522B00080448054906
:100D300000684968044AC1F3C221515CC840704749
:100D40002C00002000100240522B000815A088B093
:100D50000FC88DE80F0017A00DF1100C0FC88CE81C
:100D60000F00184A516801F00C00042804D008282C
:100D700004D0154808B070471448FBE7C1F383431B
:100D8000C9031DF8030009D5D16A04AA01F00F01B7
:100D9000515C0E4A5043B0FBF1F0EBE70C4948437D
:100DA000E8E7000002030405060708090A0B0C0D1A
:100DB0000E0F10100102030405060708090A0B0CA8
:100DC0000D0E0F100010024000127A0000366E0166
:100DD00000093D002DE9F84F04006FD02078BE4D8A
:100DE000C00747D06868C0F38100012807D0686851
:100DF000C0F38100022809D16868C00306D52868BD
:100E0000800337D560680028E7D033E06068B0F52C
:100E1000803F0BD010B1B0F5A02F11D0286820F47E
:100E200080302860286820F4802002E0286840F4A0
:100E300080302860606888B1FFF758FE064609E0F8
:100E4000286840F480202860F0E7FFF74FFE801B01
:100E5000642873D828688003F7D50BE0FFF746FEB7
:100E6000064604E0FFF742FE801B6428F1D828689C
:100E70008003F7D42078DFF8648280074FF0010AFE
:100E80004FF0000939D5686810F00C0F07D068687A
:100E9000C0F38100022809D16868C00306D428681D
:100EA000800714D52069012808D110E02069B0B16D
:100EB000C8F800A0FFF71AFE064605E007E1FFF7B5
:100EC00015FE801B0228C4D828688007F7D528683B
:100ED000616920F0F80040EAC10028600DE0C8F820
:100EE0000090FFF703FE064604E0FFF7FFFD801BBE
:100EF000022823D828688007F7D4207800072CD54B
:100F00007748A169D9B1C0F800A0FFF7EFFD064608
:100F100004E0FFF7EBFD801B02280FD8686A80070A
:100F2000F7D570484FF4FA510068B0FBF1F000902B
:100F300000BF0098411E0091FAD20EE07CE0C0F89C
:100F40000090FFF7D3FD064604E0FFF7CFFD801BBE
:100F5000022871D8686A8007F7D4207840075BD5EB
:100F6000E8690027C00008D4E86940F08050E861D3
:100F7000E869012700F0805000905B480168C905CE
:100F800011D40168834641F480710160FFF7AEFD22
:100F9000064604E0FFF7AAFD801B64284CD8DBF866
:100FA0000000C005F6D5E06801280AD008B1052880
:100FB00013D0286A20F001002862286A20F004007B
:100FC00002E0286A40F001002862E06841F2883BB4
:100FD00088B1FFF78BFD064609E0286A40F004005F
:100FE0002862EEE7FFF782FD811B59455BD8286A2E
:100FF0008007F7D50BE0FFF779FD064604E0FFF721
:1010000075FD811B59454ED8286A8007F7D41FB15A
:10101000E86920F08050E861E069A8B36968C1F32D
:101020008101022946D00228484606D0C8F860004F
:10103000FFF75CFD044639E035E04746C8F860003C
:10104000FFF754FD064604E0FFF750FD801B022821
:1010500029D828688001F7D4206AB0F5803F05D1EF
:10106000E86AA16820F00F000843E862D4E90801AB
:101070000843696821F4741108436860C7F860A0E8
:10108000FFF734FD044605E023E0FFF72FFD001BCA
:10109000022808D828688001F7D51AE0FFF726FD56
:1010A000001B022802D90320BDE8F88F28688001C0
:1010B000F4D40EE00128F7D06868226A00F4803189
:1010C000914204D1616A00F47010884201D001207D
:1010D000EAE70020E8E7000000100240000042427A
:1010E000800442422C0000200070004010B5401ED9
:1010F000B0F1807F01D3012010BD4FF0E02460618A
:101100000F21601701F0E3FB0020A06107202061A0
:10111000002010BD7047704770B590F83C20012A40
:1011200019D0012500F83C5F0222427050F83C2C97
:101130005368946823F070060B684968334324F0C1
:1011400080042143536050F83C2C9160457000218D
:101150000170084670BD022070BD0000044988423D
:1011600004D1007F012801D100F0DCBE70470000EF
:10117000840100202DE9F041044690F83C000D4622
:1011800001283BD0012684F83C60022084F83D0011
:101190009AB3042A44D02068082A53D0D5E90027FE
:1011A000E968036A23F480530362D0F81CC0036A21
:1011B0002CF4407C4CEA07274FF6FF7C27F470475D
:1011C0000CEA01313943770323F4005307EA023272
:1011D0001A43C16102622068C16921F44061C161A2
:1011E0002068C169AA6841EA0221C16184F83D60B2
:1011F000002084F83C00BDE8F08101E00220FAE71D
:10120000D5E90012EB68206801F05AF9206881697D
:1012100021F00C01816120688169AA6811430FE007
:10122000D5E90012EB68206801F07CF9206881693B
:1012300021F44061816120688169AA6841EA022144
:101240008161D3E7D5E9002C2F7B016A21F48071FD
:101250000162C169036A21F0030141EA0C0121F036
:10126000F00C39074FF400774CEA116123F4007356
:1012700007EA02221A43C16102622068C16921F0B3
:101280000C01C1612068C169AA681143ADE710B5BE
:10129000040003D094F83D0010B107E0012010BD18
:1012A000002084F83C00204600F00CF8022084F86E
:1012B0003D00211D206800F0BFFF012084F83D00A3
:1012C000002010BD00B585B0002100910191029170
:1012D00003910068124988421FD11248816941F484
:1012E00000618161816901F400610491816941F0CB
:1012F000040181618069694600F0040004904FF4A4
:10130000807000900848FFF701FB022201211B209A
:10131000FFF756FC1B20FFF745FC05B000BD0000A1
:10132000002C0140001002400008014070B5044646
:10133000006801694FF00005C943890715D4C168E9
:10134000C943890711D4E91E016101202077206873
:1013500080698007204602D0FFF700FF04E000F01C
:10136000F5F8204600F0A2F9257720680169C94305
:10137000490717D4C168C943490713D46FF0040162
:101380000161022020772068806910F4407F2046A8
:1013900002D0FFF7E3FE04E000F0D8F8204600F0AA
:1013A00085F9257720680169C943090716D4C16802
:1013B000C943090712D46FF00801016104202077A6
:1013C0002068C0698007204602D0FFF7C7FE04E00E
:1013D00000F0BCF8204600F069F925772068016923
:1013E000C943C90617D4C168C943C90613D46FF0ED
:1013F00010010161082020772068C06910F4407F47
:10140000204602D0FFF7AAFE04E000F09FF8204635
:1014100000F04CF9257720680169C943C90708D154
:10142000C168C943C90704D1891E0161204600F083
:101430006BF920680169C943090609D4C168C94329
:10144000090605D46FF0800101612046FFF762FEB6
:1014500020680169C943490609D4C168C9434906DE
:1014600005D46FF040010161204600F063F9206867
:101470000169C94389060BD4C168C943890607D4E9
:101480006FF0200101612046BDE87040FFF743BEC8
:1014900070BD000070B586B00021009101910291ED
:1014A00003910068244903250224244AB0F1804FA7
:1014B0001ED0234B234E98422BD1886940F0040064
:1014C0008861886900F004000490886940F0080091
:1014D00088618869694600F008000490C020CDE961
:1014E000000410460394FFF711FACDE900541FE001
:1014F000886940F0040088618869CDE9005400F0F3
:101500000400CDE9034069461046FFF7FFF906B035
:1015100070BD0D4A9042FAD1886940F00800886198
:10152000886900F0080004904FF44070CDE9000491
:10153000694630460394E8E7001002400008014085
:1015400000040040000C014000080040704770B5E6
:10155000044690F83C000D4601280DD0012684F881
:101560003C60022084F83D0042B1042A18D0082AC9
:101570002AD00C2A4DD139E0022070BD206800F03D
:10158000B5FE2068816941F00801816120688169A8
:1015900021F004018161206881692A69114311E009
:1015A000206800F0E3FE2068816941F400618161F8
:1015B0002068816921F480618161206881692A69DC
:1015C00041EA0221816124E0206800F00BFF2068DD
:1015D000C16941F00801C1612068C16921F00401BD
:1015E000C1612068C1692A69114311E0206800F0D7
:1015F00035FF2068C16941F40061C1612068C1699B
:1016000021F48061C1612068C1692A6941EA02212F
:10161000C16184F83D60002084F83C0070BD10B5C5
:10162000040003D094F83D0010B107E0012010BD84
:10163000002084F83C00204600F00CF8022084F8DA
:101640003D00211D206800F0F7FD012084F83D00D9
:10165000002010BD08B500681149B0F1804F0BD0D3
:10166000104A904210D1C86940F00200C861C869B0
:1016700000F00200009008BDC86940F00100C86198
:10168000C86900F00100F5E7074A9042F3D1C86944
:1016900040F00400C861C86900F00400EAE70000F7
:1016A00000100240000400400008004070470000A5
:1016B00010B504460068012200F00AFE0E482168B9
:1016C000814208D00D48814205D00D48814202D0A8
:1016D0000C48814203D1486C40F4004048642068C3
:1016E000816801F00701062903D0016841F001017A
:1016F0000160002010BD0000002C014000400140AE
:10170000004401400048014070470246002041B1BA
:10171000042909D008290AD00C2901D11068006CCD
:1017200070471068406B70471068806B7047106896
:10173000C06B70477047704770B502680446106808
:10174000D168536910F00F0F50D003F0010501F478
:10175000907635435DD0C20705D0CA0503D5E26B4C
:1017600042F00102E263420705D5DA0703D0E26BDB
:1017700042F00202E263820705D5DA0703D0E26B8A
:1017800042F00402E263020705D5DA0703D0E26BF8
:1017900042F00802E263E26B002A33D0800604D5EF
:1017A000880602D5204600F03FFF20684069E16BC3
:1017B000C0F38010090700D428B3204600F01DFFB5
:1017C0002068416949061AD5416921F0400141610B
:1017D000606BA0B11B494163606BFEF727FF0028D7
:1017E00010D0606B416BBDE870400847830610D590
:1017F0008B060ED52046BDE8704000F015BF204690
:10180000FFF799FF70BD2046FFF795FF0020E063CA
:1018100070BD030606D50B0604D52046BDE8704012
:1018200000F0E6BF4006F3D54806F1D5D168204662
:1018300021F04001D160202184F8391000F098F99E
:1018400070BD00005B25000870B5040004D094F85A
:101850003900002510B106E0012070BD84F8385031
:10186000204600F023F8242084F839002068C1685D
:1018700021F40051C160204600F022FF2068016978
:1018800021F4904101612068416921F02A01416100
:101890002068C16841F40051C160E563202084F8EC
:1018A000390084F83A00002070BD00002DE9F041B5
:1018B00086B0002500950195029503950446454F95
:1018C000016845480222032380264FF02008B942D0
:1018D0003AD1C16941F40031C161C16901F40031FB
:1018E0000491816941F00401816180693B4F00F0FE
:1018F000040004900420CDE90002694603933846B1
:10190000FFF704F80820CDE900056946384602953E
:10191000FEF7FCFF334F3248C7E90005C7E902561E
:101920003D6180147D61C7E906803846FEF776FF89
:1019300008B1FEF74FFE67630022012126207C627A
:10194000FFF73EF926203FE0274FB9423ED1C1695B
:1019500041F48021C161C16901F480210491816950
:1019600041F0080181618069694600F00800049037
:101970003815CDE900021D4F03933846FEF7C6FF28
:10198000F814CDE90005694638460295FEF7BEFF1A
:10199000144F134844373C38C7E90005C7E90256DD
:1019A0003D614FF400507D61C7E906803846FEF77F
:1019B00035FF08B1FEF70EFE6763012211462720AE
:1019C0007C62FFF7FDF82720FFF7ECF806B0BDE8D2
:1019D000F081000000440040001002400008014077
:1019E0006C0002400403002000480040000C01404D
:1019F00037B5044690F83A0082B0134620283AD111
:101A0000039AAAB3A3B394F83800012833D0012075
:101A100084F83800A262A3850025E563222084F8BB
:101A20003A00616B15488862616B1548C862616B4A
:101A300014480863606B45632168606B091DFEF7FD
:101A40001BFF206801684168009184F83850C16824
:101A500041F48071C1602068416941F00101416138
:101A60002068416941F040014161002005B030BD6E
:101A7000FFE70120FAE70220F8E70000B52500089B
:101A8000F12500086B25000810B5044600680749D9
:101A9000884201D100F05EFB05492068884203D1ED
:101AA000BDE81040FEF766BD10BD000000480040D4
:101AB0000044004070472DE9F843044690F839008F
:101AC0001E4617460D46202850D1A5B19FB194F867
:101AD000380001284AD0012084F838004FF000086F
:101AE000C4F83C80212084F83900FEF7FFFFA7846A
:101AF0008146E78426E00120BDE8F883E08C401EA3
:101B0000E084A0684B46B0F5805F4FF000024FF0D4
:101B100080012046009603D000F09BFEE8B90DE05E
:101B200000F097FEC8B928882168C0F30800486013
:101B3000206908B16D1C05E0AD1C03E0216815F8B3
:101B4000010B4860E08C0028D8D14B460022402190
:101B50002046009600F07DFE08B10320CCE720204F
:101B600084F8390084F838800020C5E70220C3E7F4
:101B700000680349884201D1FEF704BD70470000A8
:101B800000440040FEE700000D4808B5416941F0FF
:101B9000010141614069002200F0010000901146FE
:101BA0000D20FFF70DF80D20FEF7FCFF0022114677
:101BB0001020FFF705F8BDE808401020FEF7F2BF3F
:101BC0000010024070B586B000241C4800940194B7
:101BD00002940394816941F020018161816901F0DF
:101BE00020010491816941F004018161816901F062
:101BF00004010491816941F0080181618069104EFE
:101C000000F008004FF46045049000222946304659
:101C1000FEF767FF01200095CDE901040220039043
:101C200069463046FEF772FE2020CDE90004694681
:101C300030460294FEF76AFE06B070BD0010024006
:101C4000000C014010B586B000241948009401949E
:101C50000294039404941549059401601721C0E986
:101C600001144FF6FF71C0E9031444618461FFF76A
:101C70000EFB08B1FEF7AEFC009469460C480194D7
:101C8000FFF74AFA08B1FEF7A5FC0120CDE90240B2
:101C90000420CDE90440002202A90548FFF76AFAB2
:101CA000002801D0FEF796FC06B010BD002C0140C4
:101CB0008401002010B58AB0002407941C216846D6
:101CC0000894FEF750FA1B484FF08041016017213D
:101CD000C0E9011440F6C411C0E903148461FFF7A0
:101CE0009EFC08B1FEF776FC079407A911480894FA
:101CF000FFF712FA08B1FEF76DFC602000904FF478
:101D00007A70CDE90104002269460A480494FFF77D
:101D10001EFC08B1FEF75EFC042269460548FFF789
:101D200016FC08B1FEF756FC0248FFF7B3FB0AB0F9
:101D300010BD0000C401002010B58AB00024079433
:101D40001C2168460894FEF70EFA234821490160D9
:101D50001721C0E9011440F6C411C0E903148461DD
:101D6000FFF75DFC08B1FEF735FC079407A91A4898
:101D70000894FFF7D1F908B1FEF72CFC6020009021
:101D80004FF47A70CDE901040022694612480494A8
:101D9000FFF7DDFB08B1FEF71DFC042269460E4883
:101DA000FFF7D5FB08B1FEF715FC082269460A4883
:101DB000FFF7CDFB08B1FEF70DFC0C226946064883
:101DC000FFF7C5FB08B1FEF705FC0348FFF762FB10
:101DD0000AB010BD000400400402002010B58AB013
:101DE000002407941C2168460894FEF7BCF91B48A0
:101DF000194901601721C0E9011440F6C411C0E976
:101E000003148461FFF70BFC08B1FEF7E3FB0794B2
:101E100007A912480894FFF77FF908B1FEF7DAFB2B
:101E2000602000904FF47A70CDE9010408226946E1
:101E30000A480494FFF78BFB08B1FEF7CBFB0C229A
:101E400069460648FFF783FB08B1FEF7C3FB03486A
:101E5000FFF720FB0AB010BD00080040440200203C
:101E60000C4810B50A4901604FF4E131416000218E
:101E700081600C22C160C0E904128161C161FFF779
:101E8000E3FC002803D0BDE81040FEF7A3BB10BD63
:101E900000440040840200200E4810B50C49016047
:101EA0000D4941604FF4805181604900C160C91003
:101EB00001610C21416100218161C161FFF7C4FC16
:101EC000002803D0BDE81040FEF784BB10BD000021
:101ED00000480040C4020020A0860100FEE77047D1
:101EE0000E4A91889388411A89B2984203D24FF6DC
:101EF000FF73194489B2908040F6B830814204D90A
:101F00000020507001201070704750780E28FBD8C8
:101F1000034B23F81010401C507070470200002043
:101F20004000002010B500210448FFF7EEFB0449F3
:101F300048804888BDE81040FFF7D2BF84010020E8
:101F4000020000201B4910B50A684FF47A705063F4
:101F50000968886318490A68D063096808641749E2
:101F60000A6850630A6890630A68D0630968086465
:101F700000211048FFF79CFB04210E48FFF798FB57
:101F800008210D48FFF794FB0C210B48FFF790FB4D
:101F900000210A48FFF78CFB04210848FFF788FB63
:101FA00008210648FFF784FBBDE810400C210348D8
:101FB000FFF77EBBC4010020440200200402002081
:101FC0000149096848637047C40100200149096854
:101FD00088637047C401002001490968C8637047DD
:101FE0004402002001490968086470474402002047
:101FF000704700F09DB800000821014800F070B85B
:10200000300000202DE9FF5F05460E9893468A4672
:10201000102800D91020814600242BE000202E4BF0
:1020200004EB4401024603EB81076E1C07EB8201BF
:102030008B7863B191F800C091F80180C9781CF8E1
:1020400006C02CFA08FC03EA0C038B401843521C10
:10205000032AEBD3FEF71CF92049FEF7E7F84FF00F
:102060007C51FEF78BF8FEF718F900F26A302AF877
:102070001400641C4C45D1D3B9F10F0F17D9E87D7A
:1020800000F0010000EB4001C1EBC01040F2E6316E
:1020900001EBC002AAF82020E87D00F0020000EB6E
:1020A0004002C2EBC01001EBC001AAF82210E87D8B
:1020B0004FF00101020705D58BF80010039801705D
:1020C000BDE8FF9F42074FF000008BF80000F5D4F9
:1020D00003990870F4E70000822A00080000203FFE
:1020E000F8B505460F480C46C178012919D10021E1
:1020F000C1700C4B08200C499B1C00905A1EA1F18A
:102100001A00FFF77FFF002207480121074B06E076
:1021100030F8126025F812601970521CD2B2A24237
:10212000F6D3F8BD08000020760000200000002053
:1021300010B5012205490648FFF75AFCFEF7D6FC08
:102140000249091F88608868C86010BD0C00002023
:10215000C402002010B5FEF7C9FC0E4988608868EB
:10216000CA68801A0C4A03280BD90878192806D1A6
:1021700010780F2803D1107E08B90120C870002004
:1021800008708868C8600B7908780244401C0870A1
:10219000137010BD080000205C0000207047FEF79F
:1021A000ABBC30B58FB028216846FDF7DCFF1421A9
:1021B0000AA8FDF7D8FF01252804CDE90050002426
:1021C00007946846FEF706FE0F200A90CDE90B54EF
:1021D0000D9400210AA80E94FEF724FD0FB030BD27
:1021E0000E48016841F00101016041680C4A11404C
:1021F000416001680B4A11400160016821F48021AF
:102200000160416821F4FE0141604FF41F018160CB
:102210000021C1620449C0030860704700100240F9
:102220000000FFF8FFFFF6FE08ED00E00148FFF7B1
:102230007DB8000084010020F0B502681E4B1F4CE1
:102240001F4D4FF0804E984205D0704503D0A042FC
:1022500001D0A84203D122F070064A683243194ED9
:10226000194FDFF868C098420BD0704509D0A042E2
:1022700007D0A84205D0B04203D0B84201D0604593
:1022800003D122F44074CA6822434C6922F08002D0
:10229000224302608A68C2620A688262984205D05C
:1022A000B04203D0B84201D0604501D10969016351
:1022B00001214161F0BD0000002C014000040040FC
:1022C0000008004000400140004401400048014037
:1022D00010B501F01F010123046A8B409C43046286
:1022E000036A8A401343036210BD0000F0B5026A1E
:1022F00022F001020262026A43688469184E24F0E7
:1023000073050C68174F2C4322F002058A68DFF82A
:1023100058C02A43114DA84205D0B04203D0B8425C
:1023200001D0604506D122F0080ECA6842EA0E02CA
:1023300022F00402A84205D0B04203D0B84201D036
:10234000604505D14D6923F440731D438B692B43D0
:1023500043608461496841630262F0BD002C014022
:1023600000400140004401400048014030B5026A8D
:1023700022F010020262026A436884690D6824F444
:10238000E64444EA05248D6822F0200242EA051260
:10239000104DA84206D1CD6822F0800242EA051213
:1023A00022F0400208D00C4DA84205D00B4DA842A7
:1023B00002D00B4DA84207D14D6923F4406343EA94
:1023C00085038D6943EA85034360846149688163BD
:1023D000026230BD002C0140004001400044014039
:1023E0000048014030B5026A22F480720262036A3A
:1023F0004268C46923F4007324F073050C682C430D
:102400008D6843EA0523114DA84206D1CD6823F417
:10241000006343EA052323F4806308D00C4DA842EF
:1024200005D00C4DA84202D00B4DA84207D14D69F2
:1024300022F4405242EA05128D6942EA05124260D6
:10244000C4614968C163036230BD0000002C0140D3
:1024500000400140004401400048014030B5026A9C
:1024600022F480520262036A4268C4690D6824F44F
:10247000E64444EA05248D6823F4005343EA053317
:102480000B4DA84208D00B4DA84205D00A4DA842DA
:1024900002D00A4DA84204D14D6922F4804242EA9A
:1024A00085124260C46149680164036230BD000066
:1024B000002C014000400140004401400048014020
:1024C00070B5046A24F0010404628469056A114E3F
:1024D000B0420BD0B0F1804F08D00F4EB04205D0C3
:1024E0000E4EB04202D00E4EB04203D124F003048F
:1024F000144301E044F001041A0724F0F00444EA14
:10250000126225F00A0301F00A0119438261016297
:1025100070BD0000002C0140000400400008004095
:102520000040014030B5046A24F01004046285695B
:10253000046A25F4407545EA022222F470454FF6FC
:10254000FF7202EA033224F0A0032A43A02404EA23
:10255000011119438261016230BD10B5406A00214A
:10256000C185C184FFF7E7F810BD70B5446A2068E3
:10257000406994F83910C0F3C0100025212904D116
:1025800018B1E584204600F046F82068406994F8C8
:102590003A10C0F38010222904D118B1E5852046F5
:1025A00000F02BF8E06B40F01000E0632046FFF7EE
:1025B000C2F870BD10B50146406A0968096889060D
:1025C00013D40021C1850168CA6822F48072CA60F0
:1025D00001684A6922F001024A6101684A6922F0F1
:1025E00040024A61202180F83A10FFF74DFA10BDF1
:1025F00010B5406AFFF75EFA10BD0168CA6822F4A0
:102600009072CA6001684A6922F001024A61202181
:1026100080F83A1070470168CA6822F0C002CA60A8
:10262000202180F83910704710B590F83A1022290F
:1026300001D0022010BD8168B1F5805F11D0016921
:10264000002901681FD0496801F07F03816A4A1C94
:1026500082620B70C18D491E0904090CC18518D016
:102660002BE00269816A002A0268526805D0D2B262
:102670000A80816A491C8162ECE7C2F308020A8081
:10268000816A891CF7E74A68816A4B1C83620A7079
:10269000E0E70168CA6822F02002CA600168CA68DF
:1026A00022F48072CA6001684A6922F001024A611C
:1026B000202180F83A10FFF7E7F9002010BD000054
:1026C0002DE9F041044600680169E26821F44051B7
:1026D00011430161A1682069E26901436069104307
:1026E00001432068C26849F20C639A430A43C260FE
:1026F00020684169A26921F4407111434161E16997
:1027000064253226B1F5004F3848216804D0814253
:102710003DD1FEF70BFB3CE0814202D1FEF706FB08
:1027200001E0FEF7F3FA00EBC00101EB0011606875
:102730006FF0180C4000B1FBF0F3B3FBF5F3B1FB05
:10274000F0F7B1FBF0F203FB0CF307EB830306EBAE
:10275000C303B2FBF5F2B3FBF5F3120103F0F80388
:1027600002EB4302B1FBF0F3B1FBF0F0B0FBF5F08C
:1027700000FB0CF003EB800006EBC000B0FBF5F0B3
:1027800000F00700216810448860BDE8F081FEF782
:10279000BDFA00EBC00101EB001160686FF0180793
:1027A0008000B1FBF0F2B2FBF5F2B1FBF0F37A433B
:1027B00003EB8202B1FBF0F306EB0212B2FBF5F27F
:1027C000B3FBF5F302F0F00202EB0312B1FBF0F3FE
:1027D000B1FBF0F0B0FBF5F0784303EB800006EBC3
:1027E0000010B0FBF5F000F00F00CBE7003801401F
:1027F00090F83910212901D0022070478168B1F585
:10280000805F016A0BD04A1C02620268097851603D
:10281000C18C491E0904090CC1840ED017E0098837
:102820000268C1F30801516001690029016A02D000
:10283000491C0162ECE7891CFBE70168CA6822F0C9
:102840008002CA600068C16841F04001C160002098
:1028500070472DE9F0411E46174688460446069DFE
:102860001CE0681C1AD025B1FEF740F9801BA84275
:1028700014D92068C16821F4D071C1602068416911
:1028800021F001014161202084F8390084F83A00E8
:10289000002084F838000320BDE8F081206801683A
:1028A00038EA010004D00020B842DAD00020F3E773
:1028B0000120F9E70148FEF73FBF00008402002035
:1028C0000148FEF739BF0000C4020020FEE70907F7
:1028D000090E002804DB00F1E02080F800147047A6
:1028E00000F00F0000F1E02080F8141D704702E0B6
:1028F00008C8121F08C1002AFAD17047704700208B
:1029000001E001C1121F002AFBD1704718B54FF634
:10291000FF72491EADF8002089B210D3BDF8003017
:1029200010F8012B1C46534083EA0312D2B2230A4B
:1029300083EA022383EAC20383EA1212E9E7BDF8BD
:10294000000018BD017831B1012907D0022905D155
:10295000401C00F007B80249012048717047000090
:1029600018000020017861F30702417861F30F221B
:1029700012490A80837863F30702C37863F30F2256
:102980004A80037963F30702437963F30F228A8055
:10299000837963F30702C37963F30F22CA80037A52
:1029A00063F30702437A63F30F220A81837AC07AC2
:1029B00063F3070260F30F224A8170477801002019
:1029C000FEF7A2F84FF4FA642046FDF78DFF20468B
:1029D000FDF78AFFFFF7E5FBFFF7F4F8FFF7D4F800
:1029E000FFF730F9FFF766F9FFF7A6F9FFF7F6F9F9
:1029F000FFF736FAFFF750FAFFF7FBFAFFF7A2FAF4
:102A0000FDF7BEFCFFF7F8FAFDF7E6FDFAE701680F
:102A10008160C1600021817470478B18C0E9001388
:102A20008160C1600282002181747047D0E9021088
:102A3000814201D10120704700207047D0E9021285
:102A40008A4201D100207047511CC160436812784E
:102A5000994202D1038AC91AC1601046704710B565
:102A6000826844681346521C944201D1048A121BA6
:102A7000C468944202D01970826010BD0121817433
:102A800010BD0000FF000100070800000000010366
:102A90001F0002003F0500000000020603000300C3
:102AA000FF020400010A04017F0005000F07000077
:102AB000000005040F0006007F0400000000060768
:102AC00001000700FF010800030908023F00090098
:102AD0001F0600000000090507000A00FF030000B0
:102AE00000000B00FF000C000708000000000C03B2
:102AF0001F000D003F05000000000D0603000E0042
:102B0000FF020F00010A0F017F0010000F070000F5
:102B1000000010040F0011007F04000000001107E6
:102B200001001200FF011300030913023F0014000B
:102B30001F0600000000140507001500FF03000039
:102B4000000000000000000000000102030406076E
:102B50000809000000000102030400007C2B0008AB
:102B60000000002030000000EE280008AC2B000818
:102B70003000002060070000FE2800080000000070
:102B80000000000000000000000000000000000045
:102B90000000000000000001010000000100000032
:0C2BA00010000000000000000024F40001
:0400000508000121CD
:00000001FF
